:020000040800F2
:10000000602F0124E9020008398E010811830108DC
:10001000318E0108110D000839250208000000008A
:10002000000000000000000000000000A19B01088B
:10003000C11C00080000000089920108499C0108C9
:100040000303000803030008030300080303000878
:100050000303000803030008030300080303000868
:10006000030300080303000803030008A1100008AD
:10007000B1100008C1100008D1100008E1100008FC
:10008000F11000080111000803030008F11C00082A
:10009000011D000803030008030300080303000810
:1000A0000303000803030008030300080303000818
:1000B000030300080303000879A1010803030008F3
:1000C00003030008030300080303000803030008F8
:1000D0004196010889DA01080303000803030008B8
:1000E000C91C000803030008000000000303000807
:1000F00003030008030300080303000811110008AC
:10010000030300080303000889A101080303000892
:100110000303000829B901080303000803030008CA
:10012000211100083111000803030008030300082F
:100130000303000803030008030300080303000887
:1001400000000000000000000000000000000000AF
:100150000303000803030008030300080303000867
:100160000303000803030008030300080303000857
:1001700003030008C18E010803030008000000000B
:10018000030300080303000839B9010849B901084D
:100190000303000803030008030300080303000827
:1001A0000303000803030008030300080000000025
:1001B0000303000803030008030300080303000807
:1001C0000303000803030008000000000000000013
:1001D0000000000000000000030300080000000011
:1001E000000000000000000000000000000000000F
:1001F00000000000000000000303000803030008E3
:1002000003030008030300080000000003030008C4
:1002100003030008030300080303000803030008A6
:1002200003030008000000000303000800000000B2
:100230000303000803030008000000000303000894
:100240000303000803030008030300080303000876
:100250000303000803030008030300080303000866
:100260000303000803030008030300080303000856
:100270000303000803030008030300080000000054
:100280000303000803030008030300080303000836
:100290000000000003030008030300080000000042
:1002A00000000000030300080303000859B9010817
:1002B00079DA01080303000803030008111D000890
:1002C000030300080303000803030008DFF814D049
:1002D00000F09EFC00F07AF80048004791EF020819
:1002E00000F0ACFC602F0124064880470648004718
:1002F000FEE7FEE7FEE7FEE7FEE7FEE7FEE7FEE7D6
:10030000FEE7FEE739A00108CD0200082DE9F05F05
:100310000546002092469B46884606468146402474
:100320001BE0284641464746224600F0CBFA53469A
:100330005A46C01A914110D311461846224600F081
:10034000B2FA2D1A67EB01084F4622460120002120
:1003500000F0A9FA17EB00094E41201EA4F1010498
:10036000DFDC484631462A464346BDE8F09F002878
:1003700000DA4042704740EA01039B0703D009E0DE
:1003800008C9121F08C0042AFAD203E011F8013B81
:1003900000F8013B521EF9D27047D2B201E000F8DA
:1003A000012B491EFBD270470022F6E710B5134619
:1003B0000A4604461946FFF7F0FF204610BD421CCE
:1003C00010F8011B0029FBD1801A704770B5054C4D
:1003D000054D03E0206820448047241DAC42F9D13C
:1003E00070BD0000B0170308C41703080B46014690
:1003F000184600F09CBA2DE9FE4F804681EA0300C2
:10040000C00F0C46009021F0004123F00045B8EBEE
:100410000200A94105D24046214690461C460B46A3
:10042000024623F00040104347D0270DC7F30A00CF
:10043000C3F30A510290401A019040286BDAC3F3CB
:10044000130040F4801B0098924620B10023D2EBA9
:10045000030A63EB0B0B01985946C0F1400250466A
:1004600000F021FA06460D4650465946019A00F022
:1004700039FA10EB08006141002487EA115284EA3E
:10048000E7731A4340D0009A62B3019A012A4FEAF7
:10049000075215DC001B61EB02014FF0004202EA3B
:1004A0000752CDE90042001C41F5801132462B462F
:1004B00000F09AFA03B0BDE8F08F40462146F9E714
:1004C000001B61EB0201001C41F5801300185B4129
:1004D0002018A2F5001747EB030140EAD570B619C2
:1004E0006D4111E06D084FEA360645EAC0754FEAE6
:1004F0000752001B61EB0201001C41F58011490805
:100500004FEA30000019514132462B4603B0BDE896
:10051000F04F00F05ABA0098012240000023D0EBBF
:10052000020263EBE073009821464FEAE074B8EBF7
:10053000000061EB0401E9E783F000435BE781F031
:10054000004158E72DE9FE4F81EA030404F000441E
:1005500021F0004100944FF0000B23F0004350EADB
:1005600001045ED052EA03045BD0C3F30A54C1F322
:100570000A552C44A4F2F3340194A0FB0254C1F3B5
:10058000130141F48011C3F3130343F4801301FBFF
:10059000024400FB034E840A970A44EA815447EA66
:1005A0008357A4FB076802958D0A05FB07854FEA70
:1005B000932C04FB0C542705029D4FEA065847EA8A
:1005C0001637B5EB08056EEB070C870E920E47EA5F
:1005D000811742EA8312A7FB0201B6EB0B0164EB21
:1005E00000042B0D43EA0C335E1844EB1C50DA4632
:1005F0005146E7FB0201C5F313044FEA0B3343EA0C
:1006000014534FEA0432019C43EA0603A4F10C049C
:100610000294009CCDE900B400F0E6F903B0BDE817
:10062000F08F00200146F9E72DE9F04D81EA03043F
:1006300004F0004B21F0004514464FF0000A23F06F
:10064000004150EA050220D054EA01021DD0C5F352
:100650000A570246C5F31303C1F31300C1F30A5648
:1006600040F4801543F48013A7EB0608101BD64610
:1006700008F2FD3873EB050002D308F1010801E030
:1006800092185B41B8F1000F03DA00200146BDE883
:10069000F08D00204FF48011064684460EE0171BB3
:1006A00073EB050705D3121B63EB050306434CEA06
:1006B000010C49084FEA300092185B4150EA0107EB
:1006C000EDD152EA030012D082EA040083EA050168
:1006D000084305D0101BAB4106D20122002306E0DF
:1006E00000224FF0004302E06FF0010253101AEBBA
:1006F00006004CEB085110EB0A0041EB0B01BDE882
:10070000F04D00F062B930B5041E71F1000404DB55
:100710004FF00044404264EB0101141E73F10004E9
:1007200005DB1C464FF00043524263EB0403101AF2
:100730008B4101D2012030BD002030BD30B5041EF8
:1007400071F1000404DB4FF00044404264EB01010E
:10075000141E73F1000405DB1C464FF000435242A7
:1007600063EB0403101A8B4101D3012030BD00203C
:1007700030BD0EB5C10F80EAE0700844CA07002101
:1007800040F233438DE80E000A460B4600F02CF988
:1007900003B000BD0EB540F2334102910021CDE916
:1007A00000110A460B4600F01FF903B000BD70B5FA
:1007B000C1F30A5201F000450024C1F3130140F2D5
:1007C000FF3341F480119A4201DA002070BD40F2FB
:1007D00033439A42A2F2334203DC524200F072F8F1
:1007E00000E090402C43F1D0404270BD00F0004248
:1007F00030F000400AD0C10D01F56071C0F3160061
:1008000042EA0151C20840071143704700200146E7
:10081000704701F0004330B421F0004150EA01027A
:1008200006D00A0DA2F56072C1F31301002A02DCA2
:1008300030BC00207047440F44EAC104C100E018F6
:1008400030BC00EBC25000F089B8000080E8FF1F08
:10085000C0F834D0C0F838E0C0F83CE04FF00000F9
:10086000704700BF80EC200B704700BF80EC200B6E
:10087000704700BFC0EC200B704730B50B460146F7
:1008800000202022012409E021FA02F59D4205D32F
:1008900003FA02F5491B04FA02F52844151EA2F1D9
:1008A0000102F1DC30BD202A04DB203A00FA02F11B
:1008B000002070479140C2F1200320FA03F319434E
:1008C00090407047202A04DB203A21FA02F00021F0
:1008D000704721FA02F3D040C2F120029140084350
:1008E00019467047202A06DBCB17203A41FA02F05E
:1008F00043EAE07306E041FA02F3D040C2F120027D
:100900009140084319467047704710B50446481E89
:10091000014201D1042901D2052010BD10462EF05C
:1009200041FC10B12060002010BD062010BD2DE953
:10093000F041074615460E4610202EF0D7FF040062
:100940000AD06760C4E9026500F074F901682160AB
:1009500004600020BDE8F0810120FBE70029A8BF6A
:100960007047401C490008BF20F00100704710B4D8
:10097000B0FA80FC00FA0CF050EA010404BF10BC8D
:10098000704749B1CCF1200421FA04F411FA0CF1BA
:1009900018BF012121430843A3EB0C01CB1D4FEAF3
:1009A00000614FEA102042BF002010BC704700EBEE
:1009B000C35010440029A4BF10BC7047401C49001C
:1009C00008BF20F0010010BC704710B5141E73F171
:1009D000000408DA401C41F1000192185B411A43FF
:1009E00001D120F0010010BD2DE9F04D92469B464B
:1009F00011B1B1FA81F202E0B0FA80F220329046F1
:100A0000FFF751FF04460F4640EA0A0041EA0B0196
:100A100053465A46084313D0114653EA010019D0F1
:100A2000C8F140025046FFF74DFF05460E465046BE
:100A300059464246FFF737FF084305D0012004E03E
:100A400020463946BDE8F08D0020054346EAE076B1
:100A50002C4337430A986305E40AA0EB0800002200
:100A6000FD0A44EA47540A3002D500200146E9E76E
:100A7000010510196941DDE9084500196941BDE822
:100A8000F04DA2E72DE9F04D00231A461B1A8A41CA
:100A900003DB00200146BDE8F08DC1F30A52C1F32B
:100AA000130141F480154FF0000BD10702D100185B
:100AB0006D41521E0027044640F2FF11384601EBFB
:100AC000620A3E468046024600204FF48011FFF73E
:100AD000F9FEC2197141BB1846EB0100B4EB030CDF
:100AE00075EB000C04D3E41A65EB000517460E46BF
:100AF000241908F101006D4180463428E3DDF9191D
:100B000046EB0600091BA84103D24FF0FF32134603
:100B100001E0002213461BEB070046EB0A51BDE83B
:100B2000F04DFFF752BFC1F30A52C1F3130140F277
:100B3000FF3341F480119A4202DA002001467047E7
:100B400040F233439A42A2F2334202DC5242FFF7B0
:100B5000B9BEFFF7A8BE000030B5041E71F1000455
:100B600004DB4FF00044404264EB0101141E73F1BA
:100B7000000405DB1C464FF00043524263EB0403C4
:100B8000994208BF904230BD70B5044601F000455F
:100B90000020054304D14FF00045644265EB01019C
:100BA00003F00045284304D14FF00040524260EB6F
:100BB0000303101B73EB010002D24FF0004009E069
:100BC00082EA040283EA01034FF000501A4301D184
:100BD0004FF0C040EFF3008121F07F4141EA000176
:100BE00081F3008870BD000086469EE8FF1FDEF896
:100BF00034D0DEF83CE0704790EC200B704700BF2B
:100C000090EC200B704700BFD0EC200B7047000029
:100C1000064C074D06E0E06840F0010394E8070049
:100C200098471034AC42F6D3FFF754FB90170308F3
:100C3000B0170308004870470C0000242DE9F0416C
:100C40000646FFF7F7FF8046454613E016B1E06819
:100C5000B0420ED120682860D4E90101D8F80070B4
:100C6000884720462EF0EEFAD8F80000B842EBD1C3
:100C700000E025462C68002CE8D1BDE8F08110B5D5
:100C8000002200E0521C835C8C5CA34201D1002B4B
:100C9000F8D1D8B2E1B2401A10BD10B548430446AD
:100CA0002EF024FE002805D00021002C02D0641E66
:100CB0000155FAE710BD704770B58C1810F8015B4C
:100CC00015F0070301D110F8013B2A1106D110F8E5
:100CD000012B03E010F8016B01F8016B5B1EF9D1E9
:100CE0002B0705D40023521E0DD401F8013BFAE76F
:100CF00010F8013BCB1A921C03E013F8015B01F8DA
:100D0000015B521EF9D5A142D8D3002070BD00006E
:100D1000FFE7FEE70000000080B5A0B00A460346EA
:100D20001F901E911F9800684AF20001C4F2000152
:100D300088421592149326D1FFE71F9840F258215C
:100D4000C2F2004108601E98486300201690179078
:100D500002211891012119911A901B9044F29032AE
:100D6000C2F2004216AB139010461291194611922E
:100D700005F02AFF1199109008461299139A05F070
:100D800027FD0F9071E01F9800684AF20041C4F2FD
:100D90000001884224D1FFE71F9840F2F021C2F2FF
:100DA000004108601E9848630020169017900221A9
:100DB000189119911A901B9044F23041C2F20041EF
:100DC00016AA0E9008460D91114605F0FDFE102161
:100DD0000D9A0C9010460E9A05F0FAFC0B9043E029
:100DE0001F9800684DF20041C4F2000188423AD1D8
:100DF000FFE71F9840F24831C2F2004108601E9898
:100E00004863002016901790022118910122199230
:100E10001A901B9044F2D043C2F200430DF1580CDB
:100E20000A901846099161460893079205F0CCFE96
:100E30006946079A0A600899069008460999099A2E
:100E4000079B05F051FF0899059008460799079AF6
:100E500005F05AFE08990490084607990A9A05F089
:100E6000B7FC0390FFE7FFE7FFE71F9807F0D4F810
:100E7000029020B080BD0000B0B592B09C4696466E
:100E80000C4605461190ADF842100F92ADF83A307D
:100E9000BDF842000590002006900790BDF83A008A
:100EA0000828CDF810C0CDF80CE00294019504DCC0
:100EB000FFE7BDF83A000890FFE7BDF83A000C28BC
:100EC00003D1FFE709200890FFE7BDF83A0010289A
:100ED00003D1FFE70A200890FFE7BDF83A00142885
:100EE00003D1FFE70B200890FFE7BDF83A00182870
:100EF00003D1FFE70C200890FFE7BDF83A00202857
:100F000003D1FFE70D200890FFE7BDF83A00302835
:100F100003D1FFE70E200890FFE7BDF83A00402814
:100F200003D1FFE70F200890FFE7002009900A9007
:100F30000B900C900D9011980F9A05A905F068FD83
:100F400012B0B0BD0000000080B587B013468C46DB
:100F500086468DF81B000591ADF812209DF81B0008
:100F6000014623280393CDF808C0CDF804E0009192
:100F70001DD80099DFE801F012131415161B1B1B76
:100F80001B1B1B1B1B1B1B1B1B1B1B1B1B1B1B1BB1
:100F90001B1B1B1B1B1B1B1B1718191A08E007E048
:100FA00006E005E004E003E002E001E000E0FFE726
:100FB000002007B080BD0000002070470000000046
:100FC00080B584B043F60440C2F2004041F630716F
:100FD000C2F200410022039002921DF08DF941F20D
:100FE0003071C2F20041039A019010461DF060F981
:100FF00002990090084604B080BD00000000000087
:1010000080B58AB00A46034609900891099943F6CB
:101010000440C2F200400790069205931DF048F983
:101020000799049008461DF0DBF80999089A1268A0
:1010300040F20043C2F2004303F1300E03907046C9
:101040000293FFF798F908990968029AA2F86010CC
:10105000516E099BDDF820E0DEF800E001901846B3
:1010600000917146009B984700200AB080BD0000A7
:1010700080B586B013468C468646059004918DF85F
:101080000F2000208DF80E009DF90E000293CDF880
:1010900004C0CDF800E006B080BD000000000000F4
:1010A00080B543F6D070C2F2004002F0CDFA80BDA8
:1010B00080B543F65870C2F2004002F0C5FA80BD18
:1010C00080B543F6E060C2F2004002F0BDFA80BD98
:1010D00080B544F2A020C2F2004002F0B5FA80BD13
:1010E00080B544F21830C2F2004002F0ADFA80BD83
:1010F00080B544F24800C2F2004002F0A5FA80BD7B
:1011000080B544F2C000C2F2004002F09DFA80BDFA
:1011100080B544F23810C2F2004002F095FA80BD6A
:1011200080B544F2B010C2F2004002F08DFA80BDEA
:1011300080B544F22820C2F2004002F085FA80BD5A
:1011400085B0014604900498006801221023C4F27F
:10115000020398420291019200F0A380FFE70498F5
:10116000006801212822C4F202029042019100F09D
:101170009880FFE70498006801214022C4F202022F
:101180009042019100F08D80FFE7049800680121F2
:101190005822C4F202029042019100F08280FFE7DF
:1011A0000498006801217022C4F202029042019169
:1011B00077D0FFE70498006801218822C4F2020278
:1011C000904201916DD0FFE7049800680121A022B0
:1011D000C4F202029042019163D0FFE704980068D4
:1011E0000121B822C4F202029042019159D0FFE7D6
:1011F00004980068012140F21042C4F202029042B9
:1012000001914ED0FFE704980068012140F2284286
:10121000C4F202029042019143D0FFE704980068B3
:10122000012140F24042C4F202029042019138D0C2
:10123000FFE704980068012140F25842C4F202021C
:10124000904201912DD0FFE704980068012140F2FF
:101250007042C4F202029042019122D0FFE704984A
:101260000068012140F28842C4F2020290420191DA
:1012700017D0FFE704980068012140F2A042C4F2B1
:101280000202904201910CD0FFE7049800684FF6EB
:101290004831CBF6FD710844B0FA80F04009019066
:1012A000FFE70198C007002829D0FFE704980078DD
:1012B00010384AF6AB21CAF6AA21A0FB01010909A0
:1012C0000391039901F0070140F2F872C0F603029E
:1012D000515C049AD16503990429009007D3FFE774
:1012E00004980168042262F30901816506E004980C
:1012F000016840F2FF3291438165FFE705E0049801
:10130000016821F0FF018165FFE70498806D05B059
:10131000704700000000000087B001460690069864
:101320000068049006980068012245F20843C5F65B
:1013300002039842039102924ED0FFE7069800689C
:10134000012145F21C42C5F602029042029143D0AF
:10135000FFE706980068012145F23042C5F6020217
:101360009042029138D0FFE706980068012145F2CB
:101370004442C5F60202904202912DD0FFE7069842
:101380000068012145F25842C5F6020290420291DE
:1013900022D0FFE706980068012145F26C42C5F6AD
:1013A00002029042029117D0FFE7069800680121DF
:1013B00045F28042C5F60202904202910CD0FFE74E
:1013C000069800684AF66C31CAF2FD710844B0FA1A
:1013D00080F040090290FFE70298C007002824D05F
:1013E000FFE70698007808384CF6CD41CCF6CC41A2
:1013F000A0FB010109090591059945F60002C5F612
:10140000020202EB8101069A1166069945F68002F6
:10141000C5F602024A66059901F01F01012202FA8F
:1014200001F1069A9166019037E00698007810382D
:101430004AF6AB21CAF6AA21A0FB010109090591D0
:10144000049940F2B842C4F20202914200900CD8D2
:10145000FFE7049840F21041C4F20201884204D32D
:10146000FFE7059808300590FFE7059840F6000172
:10147000C4F2020101EB800006990866069840F666
:101480008001C4F202014166059800F01F000121AD
:1014900001FA00F006998866FFE707B07047000080
:1014A00084B00146039003980079029002980028C6
:1014B000019100F08C80FFE70298082800F28780F5
:1014C000FFE703980068012145F20842C5F60202D1
:1014D000904200914ED0FFE703980068012145F249
:1014E0001C42C5F602029042009143D0FFE70398E8
:1014F0000068012145F23042C5F602029042009197
:1015000038D0FFE703980068012145F24442C5F650
:101510000202904200912DD0FFE70398006801215C
:1015200045F25842C5F602029042009122D0FFE7F0
:1015300003980068012145F26C42C5F60202904210
:10154000009117D0FFE703980068012145F280421F
:10155000C5F60202904200910CD0FFE703980068A4
:101560004AF66C31CAF2FD710844B0FA80F04009C5
:101570000090FFE70098C007002810D0FFE702980E
:1015800045F6FC01C5F6020101EB80000399C8662F
:10159000039845F64011C5F6020101670FE0029875
:1015A00040F6FC01C4F2020101EB80000399C86619
:1015B000039840F64011C4F202010167FFE7029868
:1015C0000138012101FA00F003994867FFE704B0F0
:1015D000704700000000000086B001460590002022
:1015E0008DF81300059880690028039123D1FFE747
:1015F0000598806A032802901BD80299DFE801F061
:10160000020D02180598C06AC001002804D5FFE742
:1016100001208DF81300FFE70CE00598C06AB0F1D7
:10162000C07F04D1FFE701208DF81300FFE701E040
:1016300000E0FFE747E005988069B0F5005F26D13C
:10164000FFE70598806A032801901ED80199DFE81A
:1016500001F00206021101208DF8130016E0059832
:10166000C06AC001002804D5FFE701208DF81300EF
:10167000FFE70BE00598C06AB0F1C07F04D1FFE737
:1016800001208DF81300FFE700E0FFE71AE005985E
:10169000806A0328009004D3FFE70098032804D051
:1016A0000EE001208DF813000BE00598C06AC00120
:1016B000002804D5FFE701208DF81300FFE700E0C4
:1016C000FFE7FFE7FFE79DF8130006B07047000053
:1016D000B0B58DB09C4696460C4605460C900B91D5
:1016E0000A9209930C98806D08900C98806D079071
:1016F0000C98006801211022C4F202029042CDF839
:1017000018C0CDF814E004940395029100F0038111
:10171000FFE70C98006801212822C4F202029042DF
:10172000029100F0F880FFE70C9800680121402248
:10173000C4F202029042029100F0ED80FFE70C98A3
:10174000006801215822C4F202029042029100F086
:10175000E280FFE70C98006801217022C4F20202C7
:101760009042029100F0D780FFE70C9800680121B9
:101770008822C4F202029042029100F0CC80FFE77E
:101780000C9800680121A022C4F20202904202914A
:1017900000F0C180FFE70C9800680121B822C4F274
:1017A00002029042029100F0B680FFE70C980068B8
:1017B000012140F21042C4F202029042029100F074
:1017C000AA80FFE70C980068012140F22842C4F289
:1017D00002029042029100F09E80FFE70C980068A0
:1017E000012140F24042C4F202029042029100F014
:1017F0009280FFE70C980068012140F25842C4F241
:1018000002029042029100F08680FFE70C98006887
:10181000012140F27042C4F20202904202917AD059
:10182000FFE70C980068012140F28842C4F20202EE
:10183000904202916FD0FFE70C980068012140F2BE
:10184000A042C4F202029042029164D0FFE70C98D9
:101850000068012140F2B842C4F2020290420291B3
:1018600059D0FFE70C980068012145F20842C5F6FF
:101870000202904202914ED0FFE70C9800680121CD
:1018800045F21C42C5F602029042029143D0FFE7A6
:101890000C980068012145F23042C5F602029042E0
:1018A000029138D0FFE70C980068012145F24442CC
:1018B000C5F60202904202912DD0FFE70C98006815
:1018C000012145F25842C5F602029042029122D00F
:1018D000FFE70C980068012145F26C42C5F6020250
:1018E0009042029117D0FFE70C980068012145F261
:1018F0008042C5F60202904202910CD0FFE70C989C
:1019000000684AF66C31CAF2FD710844B0FA80F002
:1019100040090290FFE70298C00700280FD0FFE7B8
:101920000C98416E806E48600C98C06E002805D0FF
:10193000FFE70C98016F406F4860FFE7FFE70C98E6
:10194000006801211022C4F202029042019100F0CD
:10195000A380FFE70C98006801212822C4F202024C
:101960009042019100F09880FFE70C9800680121F7
:101970004022C4F202029042019100F08D80FFE704
:101980000C98006801215822C4F202029042019191
:1019900000F08280FFE70C98006801217022C4F2F9
:1019A00002029042019177D0FFE70C980068012174
:1019B0008822C4F20202904201916DD0FFE70C9898
:1019C00000680121A022C4F202029042019163D07A
:1019D000FFE70C9800680121B822C4F2020290428D
:1019E000019159D0FFE70C980068012140F21042A4
:1019F000C4F20202904201914ED0FFE70C980068B9
:101A0000012140F22842C4F202029042019143D0E7
:101A1000FFE70C980068012140F24042C4F2020244
:101A20009042019138D0FFE70C980068012140F204
:101A30005842C4F20202904201912DD0FFE70C9867
:101A40000068012140F27042C4F20202904201910A
:101A500022D0FFE70C980068012140F28842C4F2CE
:101A600002029042019117D0FFE70C980068012113
:101A700040F2A042C4F20202904201910CD0FFE772
:101A80000C9800684FF64831CBF6FD710844B0FA67
:101A900080F040090190FFE70198C00700282BD093
:101AA000FFE70C98C06D00F01F003F2101FA00F025
:101AB000089988600C980068016821F48021016011
:101AC00009980C99096848600C988068402809D1E9
:101AD000FFE70A980C99096888600B980C990968C7
:101AE000C86008E00B980C99096888600A980C99FE
:101AF0000968C860FFE784E00C980068012145F29E
:101B00000842C5F60202904200914ED0FFE70C98C1
:101B10000068012145F21C42C5F602029042009184
:101B200043D0FFE70C980068012145F23042C5F62A
:101B300002029042009138D0FFE70C980068012122
:101B400045F24442C5F60202904200912DD0FFE7D3
:101B50000C980068012145F25842C5F602029042F5
:101B6000009122D0FFE70C980068012145F26C42F9
:101B7000C5F602029042009117D0FFE70C9800686A
:101B8000012145F28042C5F60202904200910CD03C
:101B9000FFE70C9800684AF66C31CAF2FD71084400
:101BA000B0FA80F040090090FFE70098C0070028D5
:101BB00025D0FFE70C98C06D00F01F00012101FA4D
:101BC00000F00799486009980C99096848600C98DA
:101BD0008068402809D1FFE70A980C990968886055
:101BE0000B980C990968C86008E00B980C99096873
:101BF00088600A980C990968C860FFE700E0FFE771
:101C0000FFE70DB0B0BD000080B584B00146039081
:101C10004EF6FC50CEF20000026842F08072026084
:101C200041F6B070CEF2000002684CF65563CCF27B
:101C3000AC531A43026041F20400CEF200000022CD
:101C4000026041F20000CEF20000036843F001039D
:101C50000360039844F24023C0F20F03584340F25C
:101C60009033C2F200431860186844F6D35CC1F2A6
:101C7000620CA0FB0C0C4FEA9C1C40F2943EC2F29A
:101C8000004ECEF800C01B684DF6836CC4F21B3CBE
:101C9000A3FB0C3C4FEA9C4C40F2983EC2F2004E33
:101CA000CEF800C040F2AC3CC2F2004CCCF80020B0
:101CB00002910193009004B080BD0000000000007C
:101CC000704700000000000080B54FF4806006F00F
:101CD00073FB4FF4805006F06FFB80BD00000000E6
:101CE00081B0EFF3108072B60090FFE7FEE70000CE
:101CF00080B544F29030C2F2004005F0D9F980BDC1
:101D000080B544F23040C2F2004005F0D1F980BD08
:101D100080B544F2D040C2F2004005F0C9F980BD60
:101D200085B0014603900398406B019003980068CA
:101D3000D0F884004FF6FC729043019A40EA82008A
:101D4000039A1268C2F8840003980068D0F88400EF
:101D500020F47F00039A1368926B40EA0240C3F8B4
:101D600084000398806B019A1044019003980068E6
:101D7000D0F888006FF38F00019A40EA8200039A3E
:101D80001268C2F8880003980068D0F8880020F430
:101D9000FE00039A1368D26B40EA0240C3F8880041
:101DA0000398C06B019A02EB400001900398006811
:101DB000D0F8A0006FF38F00019A40EA8200039AE6
:101DC0001268C2F8A00003980068D0F8A00020F4C0
:101DD000FE00039A1368126C40EA0240C3F8A000A8
:101DE0000398026C406C019B02FB00300190039849
:101DF0000068D0F8B0006FF38F00019A40EA8200CB
:101E0000039A1268C2F8B00003980068D0F8B000D6
:101E100020F4FE00039A1368926C40EA0240C3F873
:101E2000B0000398826CC06C019B02FB00300190F3
:101E300003980068D0F8AC006FF38F00019A40EA75
:101E40008200039A1268C2F8AC000398026D406DDC
:101E5000019B02FB0030019003980068D0F8F0006D
:101E60006FF38F00019A40EA8200039A1268C2F869
:101E7000F00003980068D0F8F00020F47C10039A7A
:101E80001368926D40EA0240C3F8F0000398806D39
:101E9000019A02EB4000019003980068D0F8C0005E
:101EA0006FF38F00019A40EA8200039A1268C2F829
:101EB000C00003980068D0F8C00020F47C10039A9A
:101EC0001368D26D40EA0240C3F8C000039800686E
:101ED000D0F8C00020F07C50039A1368126E40EADC
:101EE0000260C3F8C0000398426B4AF60043C4F294
:101EF000000303EB8202C2660398826BC36E03EB9E
:101F0000820202670398C26B036F03EBC20242674F
:101F10000398026C436CD0F874C05A430CEB8202F5
:101F200082670398826CC36CD0F878C05A430CEB7C
:101F30008202C2670398026D436DD0F87CC05A4399
:101F40000CEB8202C0F880200398826DD0F88030BC
:101F500003EBC202C0F884200398C26D836ED0F8F0
:101F600084C05A430CEB8202C0F888200398026EAA
:101F7000836ED0F888C05A430CEB8202C0F89020E0
:101F80000398D0F890004DF2FD32C4F20002904266
:101F900000910FD3FFE70398D0F89C1041F0200187
:101FA000C0F89C100398032180F8981001208DF848
:101FB000130017E00398C06E0290FFE702980399A0
:101FC000D1F89010884208D2FFE702980021016002
:101FD000FFE7029804300290F0E7FFE700208DF859
:101FE0001300FFE79DF8130005B0704700000000E4
:101FF000B0B58CB09C4696460C4605460B900A91AF
:10200000099208930A9840680028CDF80CC0CDF8D2
:1020100008E00194009509D1FFE70A9801688268F9
:102020000069104340EA8140079009E00A9801687E
:10203000826800691043084340F080400790FFE742
:102040000A98016AC2684369D0F818C0C06940EABA
:10205000016040EA0C00184340EA024006900B98E9
:10206000816ED0F88400089A514300EB81000590FE
:102070000798059908600598043005900698059919
:10208000086005980430059000200490FFE704984C
:102090000A99C96840F2E872C0F60302515C8842AE
:1020A0000DD2FFE7099804994058059908600598F2
:1020B00004300590FFE7049804300490E7E70CB083
:1020C000B0BD00000000000080B584B04EF60000F6
:1020D000C1F6F170006803904EF60400C1F6F1708D
:1020E000006802904EF60800C1F6F1700068019099
:1020F00001980399084403900398002813D0FFE740
:10210000039840F2FC01C2F200418A1C08230091AE
:1021100011461A4616F000F902980099123104226D
:1021200016F0FAF8FFE704B080BD000000000000E0
:1021300080B58EB001460C90079106F079FB0890AF
:102140000C98002805D1FFE701208DF8370000F03A
:10215000B8BC0C9890F8350002280ED0FFE70C9818
:1021600080214165FFE70C98002180F83410FFE7DB
:1021700001208DF8370000F0A4BC0C980068012104
:102180001022C4F202029042069100F0A380FFE701
:102190000C98006801212822C4F2020290420691A4
:1021A00000F09880FFE70C98006801214022C4F2FB
:1021B00002029042069100F08D80FFE70C980068C3
:1021C00001215822C4F202029042069100F082805E
:1021D000FFE70C98006801217022C4F202029042CD
:1021E000069177D0FFE70C98006801218822C4F29D
:1021F0000202904206916DD0FFE70C980068012121
:10220000A022C4F202029042069163D0FFE70C982C
:1022100000680121B822C4F202029042069159D00E
:10222000FFE70C980068012140F21042C4F202025C
:10223000904206914ED0FFE70C980068012140F2D1
:102240002842C4F202029042069143D0FFE70C9864
:102250000068012140F24042C4F20202904206911D
:1022600038D0FFE70C980068012140F25842C4F2D0
:102270000202904206912DD0FFE70C9800680121E0
:1022800040F27042C4F202029042069122D0FFE76F
:102290000C980068012140F28842C4F20202904288
:1022A000069117D0FFE70C980068012140F2A04288
:1022B000C4F20202904206910CD0FFE70C9800682D
:1022C0004FF64831CBF6FD710844B0FA80F0400972
:1022D0000690FFE70698C007002810D0FFE70C988B
:1022E0000068016821F01E0101600C9800684169D6
:1022F00021F0800141610C980068099009E00C9878
:102300000068016821F00E0101600C9800680990D6
:10231000FFE70C98006801211022C4F202029042EB
:10232000059100F00381FFE70C9800680121282245
:10233000C4F202029042059100F0F880FFE70C9889
:10234000006801214022C4F202029042059100F08F
:10235000ED80FFE70C98006801215822C4F20202C8
:102360009042059100F0E280FFE70C98006801219F
:102370007022C4F202029042059100F0D780FFE77C
:102380000C98006801218822C4F202029042059153
:1023900000F0CC80FFE70C9800680121A022C4F275
:1023A00002029042059100F0C180FFE70C9800689E
:1023B0000121B822C4F202029042059100F0B680D9
:1023C000FFE70C980068012140F21042C4F20202BB
:1023D0009042059100F0AA80FFE70C980068012167
:1023E00040F22842C4F202029042059100F09E8021
:1023F000FFE70C980068012140F24042C4F202025B
:102400009042059100F09280FFE70C98006801214E
:1024100040F25842C4F202029042059100F08680D8
:10242000FFE70C980068012140F27042C4F20202FA
:10243000904205917AD0FFE70C980068012140F2A4
:102440008842C4F20202904205916FD0FFE70C98D7
:102450000068012140F2A042C4F2020290420591BC
:1024600064D0FFE70C980068012140F2B842C4F242
:1024700002029042059159D0FFE70C9800680121B3
:1024800045F20842C5F60202904205914ED0FFE7A0
:102490000C980068012145F21C42C5F602029042E8
:1024A000059143D0FFE70C980068012145F23042C6
:1024B000C5F602029042059138D0FFE70C980068FB
:1024C000012145F24442C5F60202904205912DD009
:1024D000FFE70C980068012145F25842C5F6020258
:1024E0009042059122D0FFE70C980068012145F247
:1024F0006C42C5F602029042059117D0FFE70C9896
:102500000068012145F28042C5F602029042059121
:102510000CD0FFE70C9800684AF66C31CAF2FD71E6
:102520000844B0FA80F040090590FFE70598C0071D
:10253000002807D0FFE70C98006E016821F4807135
:102540000160FFE70C9800681021C4F20201884284
:1025500000F08180FFE70C9800682821C4F2020196
:10256000884278D0FFE70C9800684021C4F202014D
:10257000884270D0FFE70C9800685821C4F202012D
:10258000884268D0FFE70C9800687021C4F202010D
:10259000884260D0FFE70C9800688821C4F20201ED
:1025A000884258D0FFE70C980068A021C4F20201CD
:1025B000884250D0FFE70C980068B821C4F20201AD
:1025C000884248D0FFE70C98006840F21041C4F2FE
:1025D000020188423FD0FFE70C98006840F2284192
:1025E000C4F20201884236D0FFE70C98006840F23E
:1025F0004041C4F2020188422DD0FFE70C980068E8
:1026000040F25841C4F20201884224D0FFE70C98FE
:10261000006840F27041C4F2020188421BD0FFE71B
:102620000C98006840F28841C4F20201884212D03E
:10263000FFE70C98006840F2A041C4F20201884212
:1026400009D0FFE70C98006840F2B841C4F20201DB
:10265000884209D1FFE70C980068016821F0010168
:102660000A460160049208E00C980068016821F0B5
:1026700001010A4601600392FFE7FFE7099800683D
:1026800010F0010F1BD0FFE706F0D2F8DDF820E0D4
:10269000A0EB0E00062811D3FFE70C98202141651E
:1026A0000C98032180F83510FFE70C98002180F882
:1026B0003410FFE701208DF8370002E2DEE70C98C6
:1026C000006801211022C4F202029042029100F03F
:1026D000A380FFE70C98006801212822C4F20202BF
:1026E0009042029100F09880FFE70C980068012169
:1026F0004022C4F202029042029100F08D80FFE776
:102700000C98006801215822C4F202029042029102
:1027100000F08280FFE70C98006801217022C4F26B
:1027200002029042029177D0FFE70C9800680121E5
:102730008822C4F20202904202916DD0FFE70C9809
:1027400000680121A022C4F202029042029163D0EB
:10275000FFE70C9800680121B822C4F202029042FF
:10276000029159D0FFE70C980068012140F2104215
:10277000C4F20202904202914ED0FFE70C9800682A
:10278000012140F22842C4F202029042029143D059
:10279000FFE70C980068012140F24042C4F20202B7
:1027A0009042029138D0FFE70C980068012140F276
:1027B0005842C4F20202904202912DD0FFE70C98D9
:1027C0000068012140F27042C4F20202904202917C
:1027D00022D0FFE70C980068012140F28842C4F241
:1027E00002029042029117D0FFE70C980068012185
:1027F00040F2A042C4F20202904202910CD0FFE7E4
:102800000C9800684FF64831CBF6FD710844B0FAD9
:1028100080F040090290FFE70298C00700280DD021
:10282000FFE70C98806D0B900C98C06D00F01F00B6
:102830003F2101FA00F00B9988600CE00C98806D44
:102840000A900C98C06D00F01F00012101FA00F001
:102850000A994860FFE70C98006801211022C4F231
:1028600002029042019100F00381FFE70C9800689A
:1028700001212822C4F202029042019100F0F88066
:10288000FFE70C98006801214022C4F20202904246
:10289000019100F0ED80FFE70C98006801215822BB
:1028A000C4F202029042019100F0E280FFE70C982E
:1028B000006801217022C4F202029042019100F0EE
:1028C000D780FFE70C98006801218822C4F2020239
:1028D0009042019100F0CC80FFE70C980068012144
:1028E000A022C4F202029042019100F0C180FFE7F1
:1028F0000C9800680121B822C4F2020290420191B2
:1029000000F0B680FFE70C980068012140F2104209
:10291000C4F202029042019100F0AA80FFE70C98F5
:102920000068012140F22842C4F202029042019163
:1029300000F09E80FFE70C980068012140F24042C1
:10294000C4F202029042019100F09280FFE70C98DD
:102950000068012140F25842C4F202029042019103
:1029600000F08680FFE70C980068012140F2704279
:10297000C4F20202904201917AD0FFE70C980068FD
:10298000012140F28842C4F20202904201916FD0CC
:10299000FFE70C980068012140F2A042C4F2020255
:1029A0009042019164D0FFE70C980068012140F249
:1029B000B842C4F202029042019159D0FFE70C984C
:1029C0000068012145F20842C5F6020290420191D9
:1029D0004ED0FFE70C980068012145F21C42C5F675
:1029E00002029042019143D0FFE70C980068012158
:1029F00045F23042C5F602029042019138D0FFE71D
:102A00000C980068012145F24442C5F6020290424A
:102A100001912DD0FFE70C980068012145F2584242
:102A2000C5F602029042019122D0FFE70C9800689F
:102A3000012145F26C42C5F602029042019117D085
:102A4000FFE70C980068012145F28042C5F60202BA
:102A5000904201910CD0FFE70C9800684AF66C3167
:102A6000CAF2FD710844B0FA80F040090190FFE716
:102A70000198C007002815D0FFE70C98416E806EC2
:102A800048600C98C06E00280BD0FFE70C98C06E11
:102A9000016821F4807101600C98016F406F4860FB
:102AA000FFE7FFE70C98012180F83510FFE70C984D
:102AB000002180F83410FFE7FFE700208DF8370091
:102AC000FFE79DF837000EB080BD00000000000059
:102AD00080B58AB00146089008980028069104D174
:102AE000FFE701208DF8270052E3089890F83500A1
:102AF000022807D0FFE708988021416501208DF862
:102B0000270045E30898006801211022C4F2020260
:102B10009042059100F0A380FFE70898006801212A
:102B20002822C4F202029042059100F09880FFE74B
:102B30000898006801214022C4F2020290420591E7
:102B400000F08D80FFE70898006801215822C4F248
:102B500002029042059100F08280FFE70898006829
:102B600001217022C4F202029042059177D0FFE762
:102B70000898006801218822C4F20202904205915F
:102B80006DD0FFE7089800680121A022C4F202027C
:102B90009042059163D0FFE7089800680121B822B0
:102BA000C4F202029042059159D0FFE708980068EC
:102BB000012140F21042C4F20202904205914ED02F
:102BC000FFE708980068012140F22842C4F202029F
:102BD0009042059143D0FFE708980068012140F238
:102BE0004042C4F202029042059138D0FFE70898B3
:102BF0000068012140F25842C4F20202904205915D
:102C00002DD0FFE708980068012140F27042C4F21D
:102C100002029042059122D0FFE708980068012146
:102C200040F28842C4F202029042059117D0FFE7B9
:102C300008980068012140F2A042C4F202029042CA
:102C400005910CD0FFE7089800684FF64831CBF6A5
:102C5000FD710844B0FA80F040090590FFE705983F
:102C6000C007002800F0A180FFE70898042180F841
:102C70003510089800681021C4F20201884200F063
:102C80008180FFE7089800682821C4F20201884289
:102C900078D0FFE7089800684021C4F2020188421A
:102CA00070D0FFE7089800685821C4F202018842FA
:102CB00068D0FFE7089800687021C4F202018842DA
:102CC00060D0FFE7089800688821C4F202018842BA
:102CD00058D0FFE708980068A021C4F2020188429A
:102CE00050D0FFE708980068B821C4F2020188427A
:102CF00048D0FFE70898006840F21041C4F2020192
:102D000088423FD0FFE70898006840F22841C4F2AB
:102D10000201884236D0FFE70898006840F240413F
:102D2000C4F2020188422DD0FFE70898006840F203
:102D30005841C4F20201884224D0FFE70898006895
:102D400040F27041C4F2020188421BD0FFE70898AC
:102D5000006840F28841C4F20201884212D0FFE7C5
:102D60000898006840F2A041C4F20201884209D0EC
:102D7000FFE70898006840F2B841C4F202018842B7
:102D800009D1FFE708980068016821F001010A46AF
:102D90000160049208E008980068016821F00101D0
:102DA0000A4601600392FFE7EDE1089800680168B8
:102DB00021F00E010160089800681021C4F20201A0
:102DC000884200F08180FFE7089800682821C4F25B
:102DD0000201884278D0FFE7089800684021C4F2D9
:102DE0000201884270D0FFE7089800685821C4F2B9
:102DF0000201884268D0FFE7089800687021C4F299
:102E00000201884260D0FFE7089800688821C4F278
:102E10000201884258D0FFE708980068A021C4F258
:102E20000201884250D0FFE708980068B821C4F238
:102E30000201884248D0FFE70898006840F210413C
:102E4000C4F2020188423FD0FFE70898006840F2D0
:102E50002841C4F20201884236D0FFE70898006892
:102E600040F24041C4F2020188422DD0FFE70898A9
:102E7000006840F25841C4F20201884224D0FFE7C2
:102E80000898006840F27041C4F2020188421BD0E9
:102E9000FFE70898006840F28841C4F202018842C6
:102EA00012D0FFE70898006840F2A041C4F2020186
:102EB000884209D0FFE70898006840F2B841C4F2A0
:102EC0000201884209D1FFE708980068016821F0F3
:102ED00001010A460160029208E008980068016852
:102EE00021F001010A4601600192FFE7089800689D
:102EF00001211022C4F202029042009100F00381ED
:102F0000FFE70898006801212822C4F202029042DB
:102F1000009100F0F880FFE7089800680121402246
:102F2000C4F202029042009100F0ED80FFE70898A1
:102F3000006801215822C4F202029042009100F080
:102F4000E280FFE70898006801217022C4F20202C3
:102F50009042009100F0D780FFE7089800680121B7
:102F60008822C4F202029042009100F0CC80FFE778
:102F7000089800680121A022C4F202029042009148
:102F800000F0C180FFE7089800680121B822C4F270
:102F900002029042009100F0B680FFE708980068B6
:102FA000012140F21042C4F202029042009100F06E
:102FB000AA80FFE708980068012140F22842C4F285
:102FC00002029042009100F09E80FFE7089800689E
:102FD000012140F24042C4F202029042009100F00E
:102FE0009280FFE708980068012140F25842C4F23D
:102FF00002029042009100F08680FFE70898006886
:10300000012140F27042C4F20202904200917AD053
:10301000FFE708980068012140F28842C4F20202EA
:10302000904200916FD0FFE708980068012140F2BC
:10303000A042C4F202029042009164D0FFE70898D7
:103040000068012140F2B842C4F2020290420091AD
:1030500059D0FFE708980068012145F20842C5F6FB
:103060000202904200914ED0FFE7089800680121CB
:1030700045F21C42C5F602029042009143D0FFE7A0
:1030800008980068012145F23042C5F602029042DC
:10309000009138D0FFE708980068012145F24442CA
:1030A000C5F60202904200912DD0FFE70898006813
:1030B000012145F25842C5F602029042009122D009
:1030C000FFE708980068012145F26C42C5F602024C
:1030D0009042009117D0FFE708980068012145F25F
:1030E0008042C5F60202904200910CD0FFE708989A
:1030F00000684AF66C31CAF2FD710844B0FA80F0FB
:1031000040090090FFE70098C007002827D0FFE79C
:103110000898006E016821F4807101600898806D44
:1031200007900898C06D00F01F00012101FA00F01F
:10313000079948600898416E806E48600898C06E94
:1031400000280BD0FFE70898C06E016821F4807159
:1031500001600898016F406F4860FFE7FFE708983B
:10316000012180F83510FFE70898002180F834101D
:10317000FFE70898006D002804D0FFE70898016D6C
:103180008847FFE7FFE7FFE700208DF82700FFE70C
:103190009DF827000AB080BD80B58AB0014608902E
:1031A00008980028059104D1FFE701208DF8270039
:1031B0003CE2089800681021C4F20201884200F045
:1031C0008180FFE7089800682821C4F20201884244
:1031D00078D0FFE7089800684021C4F202018842D5
:1031E00070D0FFE7089800685821C4F202018842B5
:1031F00068D0FFE7089800687021C4F20201884295
:1032000060D0FFE7089800688821C4F20201884274
:1032100058D0FFE708980068A021C4F20201884254
:1032200050D0FFE708980068B821C4F20201884234
:1032300048D0FFE70898006840F21041C4F202014C
:1032400088423FD0FFE70898006840F22841C4F266
:103250000201884236D0FFE70898006840F24041FA
:10326000C4F2020188422DD0FFE70898006840F2BE
:103270005841C4F20201884224D0FFE70898006850
:1032800040F27041C4F2020188421BD0FFE7089867
:10329000006840F28841C4F20201884212D0FFE780
:1032A0000898006840F2A041C4F20201884209D0A7
:1032B000FFE70898006840F2B841C4F20201884272
:1032C00009D1FFE708980068016821F001010A466A
:1032D0000160049208E008980068016821F001018B
:1032E0000A4601600392FFE7089800680121102256
:1032F000C4F202029042029100F0A380FFE7089816
:10330000006801212822C4F202029042029100F0DA
:103310009880FFE70898006801214022C4F2020269
:103320009042029100F08D80FFE70898006801212B
:103330005822C4F202029042029100F08280FFE71C
:103340000898006801217022C4F2020290420291A2
:1033500077D0FFE70898006801218822C4F20202B2
:10336000904202916DD0FFE7089800680121A022E9
:10337000C4F202029042029163D0FFE7089800680D
:103380000121B822C4F202029042029159D0FFE713
:1033900008980068012140F21042C4F202029042F3
:1033A00002914ED0FFE708980068012140F22842C0
:1033B000C4F202029042029143D0FFE708980068ED
:1033C000012140F24042C4F202029042029138D000
:1033D000FFE708980068012140F25842C4F2020257
:1033E000904202912DD0FFE708980068012140F239
:1033F0007042C4F202029042029122D0FFE7089884
:103400000068012140F28842C4F202029042029117
:1034100017D0FFE708980068012140F2A042C4F2EB
:103420000202904202910CD0FFE7089800684FF624
:103430004831CBF6FD710844B0FA80F040090290A3
:10344000FFE70298C007002822D0FFE7089800682D
:103450000021016008980068416008980068816058
:1034600008980068C16008980068016108980068C1
:10347000212141610898FDF763FE07900898C06D0F
:1034800000F01F003F2101FA00F00799886080E0FA
:1034900008980068012145F20842C5F602029042F0
:1034A00001914ED0FFE708980068012145F21C42C7
:1034B000C5F602029042019143D0FFE708980068E8
:1034C000012145F23042C5F602029042019138D006
:1034D000FFE708980068012145F24442C5F6020260
:1034E000904201912DD0FFE708980068012145F234
:1034F0005842C5F602029042019122D0FFE7089897
:103500000068012145F26C42C5F602029042019129
:1035100017D0FFE708980068012145F28042C5F600
:103520000202904201910CD0FFE7089800684AF629
:103530006C31CAF2FD710844B0FA80F04009019084
:10354000FFE70198C00700281ED0FFE70898006831
:103550000021016008980068416008980068816057
:1035600008980068C1600898006801610898FDF734
:10357000E7FD06900898C06D00F01F00012101FAD8
:1035800000F00699486003E001208DF827004DE027
:10359000FFE70898FDF7C0FE0898006E002809D0E4
:1035A000FFE70898006E002101600898416E806E68
:1035B0004860FFE708984068002815D0FFE70898A2
:1035C0004068082810D8FFE70898FDF769FF0898B9
:1035D000C06E4FF0000EC0F800E00898D0F870E020
:1035E000406FCEF80400FFE708980021C1660898F4
:1035F0000167089841670898C163089801640898B2
:103600004164089881640898C16408980165089825
:103610004165089880F83510FFE70898002180F888
:103620003410FFE700208DF82700FFE79DF8270002
:103630000AB080BD0000000082B0014601900198F0
:10364000406D009102B0704780B59CB001461B9060
:103650000020179040F24000C2F20040006848F29B
:10366000B512C1F64E32A0FB0202920A16921B9AC4
:10367000926D15921B9A926D1492159A12681A9275
:10368000149A126819921B9A1268012340F2100CC6
:10369000C4F2020C624513911290119300F0A380C2
:1036A000FFE71B98006801212822C4F20202904221
:1036B000119100F09880FFE71B98006801214022DB
:1036C000C4F202029042119100F08D80FFE71B9836
:1036D000006801215822C4F202029042119100F0C8
:1036E0008280FFE71B98006801217022C4F2020269
:1036F0009042119177D0FFE71B9800680121882242
:10370000C4F20202904211916DD0FFE71B9800684D
:103710000121A022C4F202029042119163D0FFE77E
:103720001B9800680121B822C4F202029042119154
:1037300059D0FFE71B980068012140F21042C4F203
:103740000202904211914ED0FFE71B9800680121C0
:1037500040F22842C4F202029042119143D0FFE7A6
:103760001B980068012140F24042C4F202029042DC
:10377000119138D0FFE71B980068012140F25842B0
:10378000C4F20202904211912DD0FFE71B9800680D
:10379000012140F27042C4F202029042119122D003
:1037A000FFE71B980068012140F28842C4F2020240
:1037B0009042119117D0FFE71B980068012140F259
:1037C000A042C4F20202904211910CD0FFE71B9874
:1037D00000684FF64831CBF6FD710844B0FA80F02E
:1037E00040091190FFE71198C007002800F03285CA
:1037F000FFE71A981B99C96D01F01F01082202FA10
:1038000001F1084200F0B280FFE71B980068102128
:10381000C4F20201884200F08180FFE71B98006833
:103820002821C4F20201884278D0FFE71B98006883
:103830004021C4F20201884270D0FFE71B98006863
:103840005821C4F20201884268D0FFE71B98006843
:103850007021C4F20201884260D0FFE71B98006823
:103860008821C4F20201884258D0FFE71B98006803
:10387000A021C4F20201884250D0FFE71B980068E3
:10388000B821C4F20201884248D0FFE71B980068C3
:1038900040F21041C4F2020188423FD0FFE71B987A
:1038A000006840F22841C4F20201884236D0FFE7A6
:1038B0001B98006840F24041C4F2020188422DD0BA
:1038C000FFE71B98006840F25841C4F202018842A9
:1038D00024D0FFE71B98006840F27041C4F2020157
:1038E00088421BD0FFE71B98006840F28841C4F271
:1038F0000201884212D0FFE71B98006840F2A04105
:10390000C4F20201884209D0FFE71B98006840F228
:10391000B841C4F20201884207D1FFE71B98006852
:10392000006800F00400109006E01B980068006832
:1039300000F008001090FFE71098002815D0FFE76E
:103940001B980068016821F0040101601B98C06D9C
:1039500000F01F00082101FA00F0159988601B98FB
:10396000416D41F001014165FFE7FFE71A981B999E
:10397000C96D01F01F01012202FA01F1084200F0B5
:10398000AC80FFE71B9800681021C4F20201884256
:1039900000F08180FFE71B9800682821C4F2020133
:1039A000884278D0FFE71B9800684021C4F20201EA
:1039B000884270D0FFE71B9800685821C4F20201CA
:1039C000884268D0FFE71B9800687021C4F20201AA
:1039D000884260D0FFE71B9800688821C4F202018A
:1039E000884258D0FFE71B980068A021C4F202016A
:1039F000884250D0FFE71B980068B821C4F202014A
:103A0000884248D0FFE71B98006840F21041C4F29A
:103A1000020188423FD0FFE71B98006840F228412E
:103A2000C4F20201884236D0FFE71B98006840F2DA
:103A30004041C4F2020188422DD0FFE71B98006884
:103A400040F25841C4F20201884224D0FFE71B989B
:103A5000006840F27041C4F2020188421BD0FFE7C7
:103A60001B98006840F28841C4F20201884212D0DB
:103A7000FFE71B98006840F2A041C4F202018842AF
:103A800009D0FFE71B98006840F2B841C4F2020178
:103A9000884207D1FFE71B980068406900F080006A
:103AA0000F9006E01B980068006800210E900F91AF
:103AB000FFE70F9800280FD0FFE71B98C06D00F0BC
:103AC0001F00012101FA00F0159988601B98416DD3
:103AD00041F002014165FFE7FFE71A981B99C96DA4
:103AE00001F01F01042202FA01F1084200F0AC804B
:103AF000FFE71B9800681021C4F20201884200F021
:103B00008180FFE71B9800682821C4F202018842E7
:103B100078D0FFE71B9800684021C4F20201884278
:103B200070D0FFE71B9800685821C4F20201884258
:103B300068D0FFE71B9800687021C4F20201884238
:103B400060D0FFE71B9800688821C4F20201884218
:103B500058D0FFE71B980068A021C4F202018842F8
:103B600050D0FFE71B980068B821C4F202018842D8
:103B700048D0FFE71B98006840F21041C4F20201F0
:103B800088423FD0FFE71B98006840F22841C4F20A
:103B90000201884236D0FFE71B98006840F240419E
:103BA000C4F2020188422DD0FFE71B98006840F262
:103BB0005841C4F20201884224D0FFE71B980068F4
:103BC00040F27041C4F2020188421BD0FFE71B980B
:103BD000006840F28841C4F20201884212D0FFE737
:103BE0001B98006840F2A041C4F20201884209D04B
:103BF000FFE71B98006840F2B841C4F20201884216
:103C000007D1FFE71B980068006800F002000D90E4
:103C100006E01B980068006800210C900D91FFE7FA
:103C20000D9800280FD0FFE71B98C06D00F01F0013
:103C3000042101FA00F0159988601B98416D41F04C
:103C400004014165FFE7FFE71A981B99C96D01F070
:103C50001F01102202FA01F1084200F0E280FFE7A2
:103C60001B9800681021C4F20201884200F0818094
:103C7000FFE71B9800682821C4F20201884278D02F
:103C8000FFE71B9800684021C4F20201884270D00F
:103C9000FFE71B9800685821C4F20201884268D0EF
:103CA000FFE71B9800687021C4F20201884260D0CF
:103CB000FFE71B9800688821C4F20201884258D0AF
:103CC000FFE71B980068A021C4F20201884250D08F
:103CD000FFE71B980068B821C4F20201884248D06F
:103CE000FFE71B98006840F21041C4F202018842CD
:103CF0003FD0FFE71B98006840F22841C4F2020160
:103D0000884236D0FFE71B98006840F24041C4F279
:103D1000020188422DD0FFE71B98006840F258410D
:103D2000C4F20201884224D0FFE71B98006840F2E9
:103D30007041C4F2020188421BD0FFE71B98006863
:103D400040F28841C4F20201884212D0FFE71B987A
:103D5000006840F2A041C4F20201884209D0FFE7A6
:103D60001B98006840F2B841C4F20201884207D1B2
:103D7000FFE71B980068006800F008000B9006E061
:103D80001B980068006800F004000B90FFE70B9898
:103D9000002845D0FFE71B98C06D00F01F001021E0
:103DA00001FA00F0159988601B980068006810F40B
:103DB000802F1CD0FFE71B980068006810F4002FCC
:103DC0000AD1FFE71B98006C002804D0FFE71B987E
:103DD000016C8847FFE709E01B98806C002804D03D
:103DE000FFE71B98816C8847FFE7FFE717E01B9808
:103DF0000068006810F4807F07D1FFE71B98006817
:103E0000016821F008010160FFE71B98006C0028A1
:103E100004D0FFE71B98016C8847FFE7FFE7FFE747
:103E2000FFE71A981B99C96D01F01F01202202FAC1
:103E300001F1084200F02E81FFE71B980068102175
:103E4000C4F20201884200F08180FFE71B980068FD
:103E50002821C4F20201884278D0FFE71B9800684D
:103E60004021C4F20201884270D0FFE71B9800682D
:103E70005821C4F20201884268D0FFE71B9800680D
:103E80007021C4F20201884260D0FFE71B980068ED
:103E90008821C4F20201884258D0FFE71B980068CD
:103EA000A021C4F20201884250D0FFE71B980068AD
:103EB000B821C4F20201884248D0FFE71B9800688D
:103EC00040F21041C4F2020188423FD0FFE71B9844
:103ED000006840F22841C4F20201884236D0FFE770
:103EE0001B98006840F24041C4F2020188422DD084
:103EF000FFE71B98006840F25841C4F20201884273
:103F000024D0FFE71B98006840F27041C4F2020120
:103F100088421BD0FFE71B98006840F28841C4F23A
:103F20000201884212D0FFE71B98006840F2A041CE
:103F3000C4F20201884209D0FFE71B98006840F2F2
:103F4000B841C4F20201884207D1FFE71B9800681C
:103F5000006800F010000A9006E01B9800680068F6
:103F600000F002000A90FFE70A98002800F0918014
:103F7000FFE71B98C06D00F01F00202101FA00F040
:103F8000159988601B9890F8350004283BD1FFE70D
:103F90001B980068016821F0160101601B980068F9
:103FA000416921F0800141611B98006C002805D116
:103FB000FFE71B98806C002807D0FFE71B9800687C
:103FC000016821F008010160FFE71B98C06D00F057
:103FD0001F003F2101FA00F0159988601B9801210C
:103FE00080F83510FFE71B98002180F83410FFE7B8
:103FF0001B98006D002804D0FFE71B98016D8847CF
:10400000FFE700F03CBC1B980068006810F4802FAC
:104010001CD0FFE71B980068006810F4002F0AD13D
:10402000FFE71B98406C002804D0FFE71B98416C09
:104030008847FFE709E01B98C06B002804D0FFE722
:104040001B98C16B8847FFE7FFE721E01B980068DA
:10405000006810F4807F11D1FFE71B9800680168A9
:1040600021F0100101601B98012180F83510FFE755
:104070001B98002180F83410FFE7FFE71B98C06B06
:10408000002804D0FFE71B98C16B8847FFE7FFE7D4
:10409000FFE7FFE71B98406D002800F0DA80FFE79C
:1040A0001B98406D10F0010F00F0C980FFE71B98CE
:1040B000042180F835101B9800681021C4F2020119
:1040C000884200F08180FFE71B9800682821C4F235
:1040D0000201884278D0FFE71B9800684021C4F2B3
:1040E0000201884270D0FFE71B9800685821C4F293
:1040F0000201884268D0FFE71B9800687021C4F273
:104100000201884260D0FFE71B9800688821C4F252
:104110000201884258D0FFE71B980068A021C4F232
:104120000201884250D0FFE71B980068B821C4F212
:104130000201884248D0FFE71B98006840F2104116
:10414000C4F2020188423FD0FFE71B98006840F2AA
:104150002841C4F20201884236D0FFE71B9800686C
:1041600040F24041C4F2020188422DD0FFE71B9883
:10417000006840F25841C4F20201884224D0FFE7AF
:104180001B98006840F27041C4F2020188421BD0C3
:10419000FFE71B98006840F28841C4F202018842A0
:1041A00012D0FFE71B98006840F2A041C4F2020160
:1041B000884209D0FFE71B98006840F2B841C4F27A
:1041C0000201884209D1FFE71B980068016821F0CD
:1041D00001010A460160099208E01B980068016825
:1041E00021F001010A4601600892FFE7FFE71798F6
:1041F000013017901699884201D9FFE707E0FFE7E1
:104200001B980068006810F0010FF0D1FFE71B98C1
:104210000068006810F0010F05D0FFE71B9803212C
:1042200080F8351004E01B98012180F83510FFE775
:10423000FFE71B98002180F83410FFE7FFE71B9889
:10424000C06C002804D0FFE71B98C16C8847FFE7CB
:10425000FFE714E31B980068012145F20842C5F608
:104260000202904207914ED0FFE71B98006801219F
:1042700045F21C42C5F602029042079143D0FFE787
:104280001B980068012145F23042C5F602029042B7
:10429000079138D0FFE71B980068012145F244429E
:1042A000C5F60202904207912DD0FFE71B980068E7
:1042B000012145F25842C5F602029042079122D0F0
:1042C000FFE71B980068012145F26C42C5F6020227
:1042D0009042079117D0FFE71B980068012145F233
:1042E0008042C5F60202904207910CD0FFE71B986E
:1042F00000684AF66C31CAF2FD710844B0FA80F0E9
:1043000040090790FFE70798C007002800F0B58232
:10431000FFE71B9800680068189019981B99C96DF1
:1043200001F01F01042202FA01F1084200F0E080CE
:10433000FFE79DF860004007002840F1D980FFE7C3
:104340001B98C06D00F01F00042101FA00F01499C1
:1043500048609DF86100000600281BD5FFE79DF826
:104360006200C00700280AD1FFE71B98806C002874
:1043700004D0FFE71B98816C8847FFE709E01B9892
:10438000006C002804D0FFE71B98016C8847FFE70A
:10439000FFE7ACE09DF860008006002800F19D80FA
:1043A000FFE71B9800681021C4F20201884200F068
:1043B0008180FFE71B9800682821C4F2020188422F
:1043C00078D0FFE71B9800684021C4F202018842C0
:1043D00070D0FFE71B9800685821C4F202018842A0
:1043E00068D0FFE71B9800687021C4F20201884280
:1043F00060D0FFE71B9800688821C4F20201884260
:1044000058D0FFE71B980068A021C4F2020188423F
:1044100050D0FFE71B980068B821C4F2020188421F
:1044200048D0FFE71B98006840F21041C4F2020137
:1044300088423FD0FFE71B98006840F22841C4F251
:104440000201884236D0FFE71B98006840F24041E5
:10445000C4F2020188422DD0FFE71B98006840F2A9
:104460005841C4F20201884224D0FFE71B9800683B
:1044700040F27041C4F2020188421BD0FFE71B9852
:10448000006840F28841C4F20201884212D0FFE77E
:104490001B98006840F2A041C4F20201884209D092
:1044A000FFE71B98006840F2B841C4F2020188425D
:1044B00009D1FFE71B980068016821F008010A464E
:1044C0000160069208E01B980068016821F0040171
:1044D0000A4601600592FFE7FFE71B98006C002881
:1044E00004D0FFE71B98016C8847FFE7FFE7C3E1B3
:1044F00019981B99C96D01F01F01022202FA01F1FE
:10450000084200F0EA80FFE79DF86000800700287D
:1045100040F1E380FFE71B98C06D00F01F0002210F
:1045200001FA00F0149948609DF861000006002827
:104530001BD5FFE79DF86200C00700280AD1FFE7FE
:104540001B98406C002804D0FFE71B98416C8847FB
:10455000FFE709E01B98C06B002804D0FFE71B9819
:10456000C16B8847FFE7FFE7B6E09DF86000800673
:10457000002800F1A780FFE71B9800681021C4F213
:104580000201884200F08180FFE71B980068282123
:10459000C4F20201884278D0FFE71B9800684021EE
:1045A000C4F20201884270D0FFE71B9800685821CE
:1045B000C4F20201884268D0FFE71B9800687021AE
:1045C000C4F20201884260D0FFE71B98006888218E
:1045D000C4F20201884258D0FFE71B980068A0216E
:1045E000C4F20201884250D0FFE71B980068B8214E
:1045F000C4F20201884248D0FFE71B98006840F2ED
:104600001041C4F2020188423FD0FFE71B980068C6
:1046100040F22841C4F20201884236D0FFE71B98DD
:10462000006840F24041C4F2020188422DD0FFE709
:104630001B98006840F25841C4F20201884224D01D
:10464000FFE71B98006840F27041C4F20201884203
:104650001BD0FFE71B98006840F28841C4F20201BA
:10466000884212D0FFE71B98006840F2A041C4F2D4
:104670000201884209D0FFE71B98006840F2B84168
:10468000C4F20201884209D1FFE71B980068016863
:1046900021F014010A460160049208E01B980068AA
:1046A000016821F00A010A4601600392FFE71B98A6
:1046B000012180F83510FFE71B98002180F83410A5
:1046C000FFE7FFE71B98C06B002804D0FFE71B98AB
:1046D000C16B8847FFE7FFE7CDE019981B99C96DCB
:1046E00001F01F01082202FA01F1084200F0C18026
:1046F000FFE79DF860000007002840F1BA80FFE75F
:104700001B9800681021C4F20201884200F08180E9
:10471000FFE71B9800682821C4F20201884278D084
:10472000FFE71B9800684021C4F20201884270D064
:10473000FFE71B9800685821C4F20201884268D044
:10474000FFE71B9800687021C4F20201884260D024
:10475000FFE71B9800688821C4F20201884258D004
:10476000FFE71B980068A021C4F20201884250D0E4
:10477000FFE71B980068B821C4F20201884248D0C4
:10478000FFE71B98006840F21041C4F20201884222
:104790003FD0FFE71B98006840F22841C4F20201B5
:1047A000884236D0FFE71B98006840F24041C4F2CF
:1047B000020188422DD0FFE71B98006840F2584163
:1047C000C4F20201884224D0FFE71B98006840F23F
:1047D0007041C4F2020188421BD0FFE71B980068B9
:1047E00040F28841C4F20201884212D0FFE71B98D0
:1047F000006840F2A041C4F20201884209D0FFE7FC
:104800001B98006840F2B841C4F20201884209D105
:10481000FFE71B980068016821F01C010A4601604F
:10482000029208E01B980068016821F00E010A4618
:1048300001600192FFE71B98C06D00F01F0001218D
:1048400001FA00F0149A50601B9841651B9880F89B
:104850003510FFE71B98002180F83410FFE71B9804
:10486000C06C002804D0FFE71B98C16C8847FFE7A5
:1048700000E0FFE7FFE7FFE700E0FFE7FFE71CB02E
:1048800080BD00000000000080B592B0014610908D
:104890000B9103F0CDFF0E901098002805D1FFE793
:1048A00001208DF8470000F0B6BC10980068012187
:1048B0001022C4F2020290420A9100F0A380FFE7A6
:1048C0001098006801212822C4F2020290420A9145
:1048D00000F09880FFE71098006801214022C4F2A0
:1048E000020290420A9100F08D80FFE71098006864
:1048F00001215822C4F2020290420A9100F0828003
:10490000FFE71098006801217022C4F20202904271
:104910000A9177D0FFE71098006801218822C4F23D
:10492000020290420A916DD0FFE7109800680121C1
:10493000A022C4F2020290420A9163D0FFE71098CD
:1049400000680121B822C4F2020290420A9159D0B3
:10495000FFE710980068012140F21042C4F2020201
:1049600090420A914ED0FFE710980068012140F272
:104970002842C4F2020290420A9143D0FFE7109805
:104980000068012140F24042C4F2020290420A91C2
:1049900038D0FFE710980068012140F25842C4F275
:1049A000020290420A912DD0FFE710980068012181
:1049B00040F27042C4F2020290420A9122D0FFE714
:1049C00010980068012140F28842C4F2020290422D
:1049D0000A9117D0FFE710980068012140F2A04229
:1049E000C4F2020290420A910CD0FFE710980068CE
:1049F0004FF64831CBF6FD710844B0FA80F040091B
:104A00000A90FFE70A98C007002800F08481FFE7BA
:104A10001098406A002801D0FFE7FFE710980221B4
:104A200080F83510FFE71098002180F83410FFE778
:104A3000109800681021C4F20201884200F08180C1
:104A4000FFE7109800682821C4F20201884278D05C
:104A5000FFE7109800684021C4F20201884270D03C
:104A6000FFE7109800685821C4F20201884268D01C
:104A7000FFE7109800687021C4F20201884260D0FC
:104A8000FFE7109800688821C4F20201884258D0DC
:104A9000FFE710980068A021C4F20201884250D0BC
:104AA000FFE710980068B821C4F20201884248D09C
:104AB000FFE71098006840F21041C4F202018842FA
:104AC0003FD0FFE71098006840F22841C4F202018D
:104AD000884236D0FFE71098006840F24041C4F2A7
:104AE000020188422DD0FFE71098006840F258413B
:104AF000C4F20201884224D0FFE71098006840F217
:104B00007041C4F2020188421BD0FFE71098006890
:104B100040F28841C4F20201884212D0FFE71098A7
:104B2000006840F2A041C4F20201884209D0FFE7C8
:104B30001098006840F2B841C4F20201884209D1DD
:104B4000FFE710980068016821F001010A46016042
:104B5000099208E010980068016821F001010A46F6
:104B600001600892FFE7FFE710980068006810F006
:104B7000010F15D0FFE703F05BFEDDF838E0A0EB96
:104B80000E0006280BD3FFE71098202141651098EE
:104B9000032180F8351001208DF847003BE3E3E75F
:104BA0001098006800680F900F9848F23F01CFF608
:104BB000106108400F9010988168C2680369D0F8AE
:104BC00014C01143194341EA0C0182691143C269BF
:104BD0001143006A08430F9908430F901098406AE8
:104BE000042808D1FFE71098C16A006B08430F99A9
:104BF00008430F90FFE710984068292807D3FFE784
:104C00001098406801212F28079136D3FFE71098AC
:104C100040683F2807D3FFE71098406801214328E8
:104C200007912AD3FFE710984068472807D3FFE78A
:104C3000109840680121492807911ED3FFE710987A
:104C400040684F2807D3FFE7109840680121532898
:104C5000079112D3FFE7109840680021742806914D
:104C600008D3FFE7109840680021782838BF012159
:104C70000691FFE706980790FFE70798C00700280E
:104C800005D0FFE70F9840F480100F90FFE70F98D2
:104C90001099096808601098006840690F900F9893
:104CA00020F007000F901098406A0F9908430F906A
:104CB0001098406A04281CD1FFE71098806A0F9969
:104CC00008430F901098C06A002811D0FFE7109891
:104CD000FCF782FC00280AD0FFE7109840214165CC
:104CE0001098012180F835108DF8471093E2FFE706
:104CF000FFE70F981099096848611098FCF720FAAF
:104D00000D901098C06D00F01F003F2101FA00F0D7
:104D10000D9988602CE110980068012145F2084245
:104D2000C5F60202904205914ED0FFE71098006848
:104D3000012145F21C42C5F602029042059143D082
:104D4000FFE710980068012145F23042C5F60202E3
:104D50009042059138D0FFE710980068012145F294
:104D60004442C5F60202904205912DD0FFE710980B
:104D70000068012145F25842C5F6020290420591B1
:104D800022D0FFE710980068012145F26C42C5F679
:104D900002029042059117D0FFE7109800680121A8
:104DA00045F28042C5F60202904205910CD0FFE721
:104DB000109800684AF66C31CAF2FD710844B0FAE6
:104DC00080F040090590FFE70598C007002800F033
:104DD000C380FFE710980068012145F20842C5F63C
:104DE0000202904204914ED0FFE710980068012122
:104DF00045F21C42C5F602029042049143D0FFE7FF
:104E000010980068012145F23042C5F60202904236
:104E1000049138D0FFE710980068012145F2444220
:104E2000C5F60202904204912DD0FFE71098006869
:104E3000012145F25842C5F602029042049122D067
:104E4000FFE710980068012145F26C42C5F60202A6
:104E50009042049117D0FFE710980068012145F2B5
:104E60008042C5F60202904204910CD0FFE71098F0
:104E700000684AF66C31CAF2FD710844B0FA80F05D
:104E800040090490FFE70498C007002801D0FFE71D
:104E9000FFE71098022180F83510FFE710980021F5
:104EA00080F83410FFE71098006800680F900F98A2
:104EB0006FF310100F9010988068402803D1FFE71F
:104EC0001020039008E0109880680021802808BF17
:104ED0004FF480410391FFE703981099CA680B696A
:104EE000D1F814C0D1F818E040EAD20040EAD3006B
:104EF00040EADC0040EADE00CA6940EAD200096A02
:104F000040EA11100F9908430F900F981099096803
:104F10000860109801684AF6F832CAF2FD7211442E
:104F20004CF6CD42CCF6CC42A1FB02124FF6FC73FC
:104F3000C3F6FF7303EA9202C26510980291FCF770
:104F4000FFF80C901098C06D00F01F00012101FACD
:104F500000F00C9948600AE01098402141651098D3
:104F6000032180F8351001208DF8470053E1FFE759
:104F70001098006801211022C4F2020290420191AF
:104F800000F00381FFE71098006801212822C4F295
:104F900002029042019100F0F880FFE7109800684B
:104FA00001214022C4F202029042019100F0ED8002
:104FB000FFE71098006801215822C4F202029042D3
:104FC000019100F0E280FFE7109800680121702253
:104FD000C4F202029042019100F0D780FFE71098DE
:104FE000006801218822C4F202029042019100F07F
:104FF000CC80FFE7109800680121A022C4F20202D1
:105000009042019100F0C180FFE7109800680121F3
:10501000B822C4F202029042019100F0B680FFE78C
:1050200010980068012140F21042C4F2020290423E
:10503000019100F0AA80FFE710980068012140F27A
:105040002842C4F202029042019100F09E80FFE7E4
:1050500010980068012140F24042C4F202029042DE
:10506000019100F09280FFE710980068012140F262
:105070005842C4F202029042019100F08680FFE79C
:1050800010980068012140F27042C4F2020290427E
:1050900001917AD0FFE710980068012140F2884220
:1050A000C4F20202904201916FD0FFE710980068AD
:1050B000012140F2A042C4F202029042019164D068
:1050C000FFE710980068012140F2B842C4F20202E2
:1050D0009042019159D0FFE710980068012145F2F4
:1050E0000842C5F60202904201914ED0FFE71098A7
:1050F0000068012145F21C42C5F60202904201916E
:1051000043D0FFE710980068012145F23042C5F610
:1051100002029042019138D0FFE710980068012107
:1051200045F24442C5F60202904201912DD0FFE7BC
:1051300010980068012145F25842C5F602029042DB
:10514000019122D0FFE710980068012145F26C42DE
:10515000C5F602029042019117D0FFE7109800684F
:10516000012145F28042C5F60202904201910CD025
:10517000FFE7109800684AF66C31CAF2FD710844E6
:10518000B0FA80F040090190FFE70198C0070028BD
:1051900037D0FFE71098FCF7BFF810988068802898
:1051A00004D1FFE7109800214160FFE710980179D2
:1051B000006E01601098416E806E486010984068E3
:1051C000002815D0FFE710984068082810D8FFE79E
:1051D0001098FCF765F91098C06E4FF0000EC0F8FB
:1051E00000E01098D0F870E0406FCEF8040007E0BF
:1051F00010980021C1661098016710984167FFE779
:10520000FFE71098002141651098012280F83520B1
:105210008DF84710FFE79DF8470012B080BD0000F1
:1052200080B592B013468C46864610908DF83F109C
:105230000E9200208DF837000893CDF81CC0CDF8F1
:1052400018E003F0F5FA0B901098002805D1FFE75D
:1052500001208DF8470000F063BD109890F83500EC
:1052600002280ED0FFE7109880214165FFE71098D3
:10527000002180F83410FFE701208DF8470000F08E
:105280004FBD1098006801211022C4F20202904222
:10529000059100F0A380FFE7109800680121282203
:1052A000C4F202029042059100F09880FFE7109846
:1052B000006801214022C4F202029042059100F0F0
:1052C0008D80FFE71098006801215822C4F2020285
:1052D0009042059100F08280FFE71098006801215C
:1052E0007022C4F202029042059177D0FFE7109835
:1052F000006801218822C4F20202904205916DD01B
:10530000FFE7109800680121A022C4F20202904237
:10531000059163D0FFE7109800680121B822C4F21C
:1053200002029042059159D0FFE7109800680121D0
:1053300040F21042C4F20202904205914ED0FFE7C3
:1053400010980068012140F22842C4F20202904203
:10535000059143D0FFE710980068012140F24042D8
:10536000C4F202029042059138D0FFE7109800681D
:10537000012140F25842C4F20202904205912DD020
:10538000FFE710980068012140F27042C4F2020267
:105390009042059122D0FFE710980068012140F269
:1053A0008842C4F202029042059117D0FFE710989C
:1053B0000068012140F2A042C4F20202904205912D
:1053C0000CD0FFE7109800684FF64831CBF6FD711E
:1053D0000844B0FA80F040090590FFE70598C0073F
:1053E00000282FD0FFE710980068006810F4807F35
:1053F00009D0FFE710984FF48071416501208DF8C6
:10540000470000F08DBC9DF83F00002809D1FFE760
:105410001098C06D00F01F00202101FA00F00C90E0
:1054200008E01098C06D00F01F00102101FA00F094
:105430000C90FFE71098806D0A901098806D0830EE
:1054400009902EE010980068006810F0200F09D035
:10545000FFE710984FF48071416501208DF84700F7
:1054600000F05EBC9DF83F00002809D1FFE71098CE
:10547000C06D00F01F00022101FA00F00C9008E05E
:105480001098C06D00F01F00042101FA00F00C908C
:10549000FFE71098806D0A901098806D0430099095
:1054A000FFE7FFE70A9800680C99084240F09582F0
:1054B000FFE71098006801211022C4F20202904216
:1054C000049100F0A380FFE71098006801212822D2
:1054D000C4F202029042049100F09880FFE7109815
:1054E000006801214022C4F202029042049100F0BF
:1054F0008D80FFE71098006801215822C4F2020253
:105500009042049100F08280FFE71098006801212A
:105510007022C4F202029042049177D0FFE7109803
:10552000006801218822C4F20202904204916DD0E9
:10553000FFE7109800680121A022C4F20202904205
:10554000049163D0FFE7109800680121B822C4F2EB
:1055500002029042049159D0FFE71098006801219F
:1055600040F21042C4F20202904204914ED0FFE792
:1055700010980068012140F22842C4F202029042D1
:10558000049143D0FFE710980068012140F24042A7
:10559000C4F202029042049138D0FFE710980068EC
:1055A000012140F25842C4F20202904204912DD0EF
:1055B000FFE710980068012140F27042C4F2020235
:1055C0009042049122D0FFE710980068012140F238
:1055D0008842C4F202029042049117D0FFE710986B
:1055E0000068012140F2A042C4F2020290420491FC
:1055F0000CD0FFE7109800684FF64831CBF6FD71EC
:105600000844B0FA80F040090490FFE70498C0070E
:1056100000285FD0FFE70A9800681099C96D01F073
:105620001F01012202FA01F108420FD0FFE7109892
:10563000416D41F0020141651098C06D00F01F00FE
:10564000012101FA00F009990860FFE70A98006853
:105650001099C96D01F01F01042202FA01F10842FC
:105660000FD0FFE71098416D41F00401416510989B
:10567000C06D00F01F00042101FA00F009990860D4
:10568000FFE70A9800681099C96D01F01F01082210
:1056900002FA01F108421CD0FFE71098416D41F079
:1056A000010141651098C06D00F01F00082101FA4A
:1056B00000F0099908601098012180F83510FFE783
:1056C0001098002180F83410FFE701208DF8470082
:1056D00026E324E00A9800681099C96D01F01F01C3
:1056E000082202FA01F1084218D0FFE71098C06DB5
:1056F00000F01F00012101FA00F00A9A10601098D2
:105700004165109880F83510FFE71098002180F867
:105710003410FFE701208DF8470001E3FFE70E9802
:10572000013000281BD0FFE703F082F8DDF82CE001
:10573000A0EB0E00DDF838E0704504D8FFE70E98C6
:1057400000280BD1FFE71098202141651098FCF745
:10575000EFFC01218DF847100390E1E2FFE710987C
:10576000006801211022C4F202029042029100F06E
:105770000381FFE71098006801212822C4F2020289
:105780009042029100F0F880FFE710980068012134
:105790004022C4F202029042029100F0ED80FFE745
:1057A0001098006801215822C4F20202904202912E
:1057B00000F0E280FFE71098006801217022C4F237
:1057C00002029042029100F0D780FFE71098006833
:1057D00001218822C4F202029042029100F0CC80A2
:1057E000FFE7109800680121A022C4F20202904253
:1057F000029100F0C180FFE7109800680121B822F3
:10580000C4F202029042029100F0B680FFE71098C5
:105810000068012140F21042C4F20202904202915B
:1058200000F0AA80FFE710980068012140F22842AA
:10583000C4F202029042029100F09E80FFE71098AD
:105840000068012140F24042C4F2020290420291FB
:1058500000F09280FFE710980068012140F2584262
:10586000C4F202029042029100F08680FFE7109895
:105870000068012140F27042C4F20202904202919B
:105880007AD0FFE710980068012140F28842C4F204
:105890000202904202916FD0FFE710980068012148
:1058A00040F2A042C4F202029042029164D0FFE7AB
:1058B00010980068012140F2B842C4F202029042FE
:1058C000029159D0FFE710980068012145F2084283
:1058D000C5F60202904202914ED0FFE71098006890
:1058E000012145F21C42C5F602029042029143D0CA
:1058F000FFE710980068012145F23042C5F6020228
:105900009042029138D0FFE710980068012145F2DB
:105910004442C5F60202904202912DD0FFE7109852
:105920000068012145F25842C5F6020290420291F8
:1059300022D0FFE710980068012145F26C42C5F6BD
:1059400002029042029117D0FFE7109800680121EF
:1059500045F28042C5F60202904202910CD0FFE768
:10596000109800684AF66C31CAF2FD710844B0FA2A
:1059700080F040090290FFE70298C00700282BD072
:10598000FFE71098C06E002813D0FFE71098006F53
:1059900000681099496F08420AD0FFE71098016F1C
:1059A000406F48601098416D41F480614165FFE7A8
:1059B000FFE71098406E00681099896E08420AD07F
:1059C000FFE71098416E806E48601098416D41F479
:1059D00000714165FFE7FFE764E59DF83F0000289F
:1059E00040F0D280FFE71098006801211022C4F235
:1059F00002029042019100F0A380FFE71098006836
:105A000001212822C4F202029042019100F0988004
:105A1000FFE71098006801214022C4F20202904280
:105A2000019100F08D80FFE7109800680121582255
:105A3000C4F202029042019100F08280FFE71098C8
:105A4000006801217022C4F202029042019177D0D5
:105A5000FFE71098006801218822C4F202029042F8
:105A600001916DD0FFE7109800680121A022C4F2D7
:105A700002029042019163D0FFE710980068012173
:105A8000B822C4F202029042019159D0FFE7109867
:105A90000068012140F21042C4F2020290420191DA
:105AA0004ED0FFE710980068012140F22842C4F26E
:105AB00002029042019143D0FFE710980068012153
:105AC00040F24042C4F202029042019138D0FFE716
:105AD00010980068012140F25842C4F2020290423C
