:020000040800F2
:10000000803F012499040008C1080108C9FD0008C7
:10001000B9080108E9250008D174010800000000B2
:10002000000000000000000000000000B114010802
:100030000135000800000000D90C0108491501082D
:10004000B3040008B3040008B3040008B3040008B4
:10005000B3040008B3040008B3040008B3040008A4
:10006000B3040008B3040008B304000841290008E1
:100070005129000861290008712900088129000818
:1000800091290008A1290008B304000831350008AF
:1000900041350008B3040008B3040008B3040008A5
:1000A000B3040008B3040008B3040008B304000854
:1000B000B3040008B304000869170108B30400087A
:1000C000B3040008B3040008B3040008B304000834
:1000D00081100108513A0108B3040008B304000874
:1000E00009350008B304000800000000B30400084C
:1000F000B3040008B3040008B3040008B1290008E1
:10010000B3040008B304000879170108B304000819
:10011000B304000809250108B3040008B30400086B
:10012000C1290008D1290008B3040008B30400085D
:10013000B3040008B3040008B3040008B3040008C3
:1001400000000000000000000000000000000000AF
:10015000B3040008B3040008B3040008B3040008A3
:10016000B3040008B3040008B3040008B304000893
:10017000B304000839090108B304000800000000B6
:10018000B3040008B3040008192501082925010853
:10019000B3040008B3040008B3040008B304000863
:1001A000B3040008B3040008B30400080000000012
:1001B000B3040008B3040008B3040008B304000843
:1001C000B3040008B30400080000000000000000B1
:1001D0000000000000000000B30400080000000060
:1001E000000000000000000000000000000000000F
:1001F0000000000000000000B3040008B304000881
:10020000B3040008B304000800000000B3040008B1
:10021000B3040008B3040008B3040008B3040008E2
:10022000B304000800000000B30400080000000050
:10023000B3040008B304000800000000B304000881
:10024000B3040008B3040008B3040008B3040008B2
:10025000B3040008B3040008B3040008B3040008A2
:10026000B3040008B3040008B3040008B304000892
:10027000B3040008B3040008B30400080000000041
:10028000B3040008B3040008B3040008B304000872
:1002900000000000B3040008B304000800000000E0
:1002A00000000000B3040008B30400083925010869
:1002B000413A0108B3040008B304000851350008AE
:1002C000B3040008B3040008B304000800F002F807
:1002D00000F0D2F814A696E8000CB244B344DA4514
:1002E00001D100F0C9F8BAE80F000FA696E8300077
:1002F000A5EB040504EB0607AAEB0704A7F1010729
:100300004FEA15154FEA3414A4F10104AC4201D3AD
:1003100000F0B2F813F0010F18BFFB1A43F001030D
:1003200000F001F8DBE71847A8170200C817020021
:100330000A444FF0000C10F8013B13F0070408BF0B
:1003400010F8014B1D1108BF10F8015B641E05D0A9
:1003500010F8016B641E01F8016BF9D113F0080F5E
:100360001EBF10F8014BAD1C0C1B09D16D1E58BFF0
:1003700001F801CBFAD505E014F8016B01F8016B27
:100380006D1EF9D59142D6D370470000704700002A
:100390000023002400250026103A28BF78C1FBD88E
:1003A000520728BF30C148BF0B6070476E2900F06C
:1003B0005B85702900F09186662921F0C28065294D
:1003C00021F0BF80672921F0BC80612921F0BB802A
:1003D00003681B0A28BF41F08001692900F00885E5
:1003E000642900F00585752900F002856F2900F069
:1003F0001F86782900F05D86E92900F0B985E42997
:1004000000F0B685F52900F0B385EF2900F01C86D1
:10041000F82900F05C860368DB0928BF41F0800101
:10042000632901F03984732901F03E84E32901F046
:100430004984F32901F04E84002070471FB521F054
:100440006EF89DE8030000F03DFB01F08BFD040019
:100450000020002120F07CFE401C60600020002174
:1004600020F060FEE06000F007FF00F0F9FA1FBD29
:1004700010B500F06AFF10BD00F0E6FB1146FFF773
:10048000DDFF20F041F900F009FC03B4FFF7F0FFB5
:1004900003BC00F045FC00000948804709480047BC
:1004A000FEE7FEE7FEE7FEE7FEE7FEE7FEE7FEE724
:1004B000FEE7FEE704480549054A064B7047000081
:1004C00029160108CD020008805F0024803F012426
:1004D00080BF002480BF002470B5064600F0D6FA25
:1004E000056806F10B0020F00704B4429CBF002011
:1004F00070BD2B466A68BAB11068A04210D304F1EF
:10050000080188423CBF5068586007D351681019F1
:1005100041601168091B016058601460101D70BDB6
:1005200013465268002AE7D12146284600F0B6FA61
:100530000028DED170BD70B50446051F00F0A6FA94
:100540000068002C14BF446870BD002C18BFAC427A
:100550003CBF20466468F8D301680A18AA4218BF55
:10056000456003D12A680546114401602868411995
:10057000A1421CBF6C6070BD61686960216808445D
:10058000286070BD53EA020C00F069802DE9F04B41
:100590004FF00006002B1FBFB3FA83F503FA05F4F2
:1005A00024FA05F65E4012BF1643B2FA82F502FA4B
:1005B00005F4C5F120051EBF22FA05FC44EA0C042F
:1005C000203556EA044C4FEA144418BF641C4FF01F
:1005D00000084FF00009904271EB030C39D3002959
:1005E00019BFB1FA81F701FA07F6B0FA80F700FAFD
:1005F00007F6C7F120071EBF20FA07FC46EA0C06E3
:100600002037B6FBF4FCA7EB0507103F07F01F0BE4
:10061000CBF120062CFA06F60CFA0BFB44BFB346CE
:100620000026202FA4BF5E464FF0000B5BEA060CAD
:1006300008BF4FF0010B19EB0B0948EB0608ABFBA9
:10064000027C06FB02CC0BFB03CCC01B71EB0C0144
:10065000C1E70B46024641464846BDE8F08B13B55C
:10066000084318BF4FF0FF300146AFF30080BDE8EC
:100670001C4070472DE9F04F9B4616464FF001098C
:10068000C1B020910090A9F1010920A85DF829507E
:1006900050F82900C5E04FEA5A0070432C185FEA71
:1006A000CA7100D1801B5A46214627182846904718
:1006B00000280EDD304646EA0501890765D022781C
:1006C0002978401E05F8012B04F8011BF7D1AD1B5A
:1006D000A41B5A46394620469047002823DD5A4637
:1006E00039462846904700280EDD304646EA050187
:1006F000890751D03A782978401E05F8012B07F870
:10070000011BF7D1AD1BBF1B304646EA0401890728
:1007100049D03A782178401E04F8012B07F8011BD4
:10072000F7D1A41BBF1B314646EA0402B81B92074F
:1007300040D003782278491E04F8013B00F8012BD1
:10074000F7D12C46871BB84634445A4641462046CA
:1007500090470028F8DB5A464146BF1B3846904771
:100760000028F8DC304646EA0401A7424FEA8171CE
:100770002ED931B33A782178401E04F8012B07F8BE
:10078000011BF7D1A41BBF1BDEE722682968001FED
:1007900004C502C4F9D19AE73A682968001F04C564
:1007A00002C7F9D1AEE73A682168001F04C402C746
:1007B000F9D1B6E703682268091F08C404C0F9D15B
:1007C000BFE73A682168001F04C402C7F9D1D9E71E
:1007D000E1B198F800202178401E04F8012B08F8B8
:1007E000011BF6D1A21B501BB0FBF6F0401EAAEB7A
:1007F0000001491E884216D90A2910D920AB4DF8AC
:10080000295043F8290009F1010918E0D8F800201F
:100810002168001F04C448F8041BF7D1E2E70A2846
:1008200010D9824637E70A2807D94DF8292020AA8F
:1008300042F8291009F10109F3E70A2902D91546FE
:100840008A4628E7B9F1000F7FF41DAF41B0BDE83B
:10085000F08F2DE9F04799460F460646140039D02F
:10086000002F37D00A2F01D9FFF704FF7F1E35462E
:1008700007FB04582CE02F46254400E03F1BB742FD
:1008800005D34A462946384690470028F6DC44EA14
:1008900005003B1980070CD0002117E029180A1B1E
:1008A0000F6802E011681151121B9A42FAD2001D22
:1008B0001751A0420CD2F1E76818027801E00778DE
:1008C0000755001B9842FAD2491C0255A142F3D3A6
:1008D0004545D0D3BDE8F087032A40F2308010F0C0
:1008E000030C00F0158011F8013BBCF1020F6244CB
:1008F00098BF11F801CB00F8013B38BF11F8013B5C
:10090000A2F1040298BF00F801CB38BF00F8013B08
:1009100011F0030300F02580083AC0F0088051F878
:10092000043B083A51F804CBA0E80810F5E7121D83
:100930005CBF51F8043B40F8043BAFF30080D207A2
:1009400024BF11F8013B11F801CB48BF11F8012B6E
:1009500024BF00F8013B00F801CB48BF00F8012B91
:10096000704710B5203AC0F00B80B1E81850A0E8ED
:100970001850B1E81850A0E81850203ABFF4F5AF6D
:100980005FEA027C24BFB1E81850A0E8185044BFC9
:1009900018C918C0BDE810405FEA827C24BF51F836
:1009A000043B40F8043B08BF7047D20728BF31F82A
:1009B000023B48BF11F8012B28BF20F8023B48BF7B
:1009C00000F8012B70474FF000020429C0F012809C
:1009D00010F0030C00F01B80CCF1040CBCF1020FF2
:1009E00018BF00F8012BA8BF20F8022BA1EB0C01C7
:1009F00000F00DB85FEAC17C24BF00F8012B00F8BD
:100A0000012B48BF00F8012B70474FF0000200B5E2
:100A1000134694469646203922BFA0E80C50A0E821
:100A20000C50B1F12001BFF4F7AF090728BFA0E8CF
:100A30000C5048BF0CC05DF804EB890028BF40F89B
:100A4000042B08BF704748BF20F8022B11F0804FDD
:100A500018BF00F8012B70477047704770470000BF
:100A600008487CB57844009007487844009C0546C7
:100A7000019004E02046016808448047241DAC42F0
:100A8000F8D17CBDB4110200B611020000487047D5
:100A9000C8010024704770477047704738B5044656
:100AA0000A4600206946AFF30080002808BF38BD21
:100AB00002460099204600F0A5F8012038BD01202B
:100AC00000F0BAB8F8B5AFF30080054600200C4638
:100AD0000C2000BF0646A819A0420DD9324669462F
:100AE0000020AFF30080070008BF00F0A5F80098D1
:100AF000A04218BF0546C419FFF7C8FF05600746A6
:100B0000F01D20F007004619284600F00AF8B4420C
:100B100008BFF8BDA21B31463868BDE8F84000F0B8
:100B200071B800210160416070470C2070472DE9C9
:100B3000F04791460C468046FFF7A8FF07686042E1
:100B400034EA000001D1042C02D20520BDE8F08770
:100B5000601E40F0070609F10B0020F007054D4527
:100B600039D93B467A6882B31468101D404206EAC0
:100B7000000C644525D9A4EB0C00854221D8BCF1BA
:100B8000000F0BD0104601686244A1EB0C0111600C
:100B900041685160C0F800C058600346116805F113
:100BA0000800814205D35019491B01601560586047
:100BB000034652F8040F58600020C8F80020BDE832
:100BC000F08713465268002ACED129463846FFF7EF
:100BD00065FF0028C5D10620BDE8F08710B500F0FC
:100BE0000DF8006810BD10B5044600F007F8046069
:100BF00010BD000000487047C00100240048704745
:100C0000C0010024034640688C46002818BF884273
:100C10003CBF03464068F8D318681844884207D0A0
:100C20000CF1030020F00700001D411A521A014682
:100C3000081D0A60FFF77FBC10B500F049F8BDE859
:100C4000104000F03FB870477546FFF7D3FFAE463F
:100C500005006946534620F00700854618B020B5C8
:100C6000FFF728FCBDE820404FF000064FF00007DA
:100C70004FF000084FF0000BAC46ACE8C009ACE800
:100C8000C009ACE8C009ACE8C00921F007018D46F5
:100C900070470B460146184600F0FAB810B50446F6
:100CA000AFF300802046BDE81040FFF7EEBB10B563
:100CB000002000F096FBFFF7DBFBBDE810400120B1
:100CC00000F02EB8002801D000F02AB870470000CC
:100CD00010B5012805D0002103A000F069FB012018
:100CE00010BD09A1F8E7000053494752544D454D46
:100CF0003A204F7574206F662068656170206D65BD
:100D00006D6F7279000000003A2048656170206DB7
:100D1000656D6F727920636F7272757074656400AF
:100D200001491820ABBEFEE72600020070B504465C
:100D300085690068C10601D5302600E02026C0077D
:100D400007D070BDD4E9012130469047206A401C8D
:100D500020626D1EF6D570BD70B5044685690078B9
:100D6000C00707D170BDD4E9012120209047206A37
:100D7000401C20626D1EF6D570BD09684A0501D57C
:100D800040B27047C905FCD500B2704709684A05F2
:100D900001D5C0B27047C905FCD580B2704770B5A7
:100DA0000C460546012A05D02878800600D5EA6958
:100DB000002302E0012305E05B1C934202D2E05CC9
:100DC0000028F9D1A869E618C01AA861286A184451
:100DD00028622846FFF7AAFF04E0D5E9012114F8AC
:100DE000010B9047B442F8D32846FFF7B5FF70BD1A
:100DF0002DE9F0410646002410687529314616A5F4
:100E000010D0FFF7BAFF002802DA404213A507E02E
:100E100031688A0701D512A502E0490704D511A55A
:100E2000012401E0FFF7B2FF00210A2206F12407A6
:100E300009E0B0FBF2FCB0FBF2F302FB1C00303027
:100E400078541846491C0028F3D123462A463046D8
:100E5000BDE8F04100F018BB000000002D000000CC
:100E60002B0000002000000011680268006A530592
:100E700001D508700AE0D30501D5088006E0130605
:100E800003D5C217C1E9000200E0086001207047E5
:100E9000074B70B50D467B4400F0E1FE0446284642
:100EA00000F01CFF10B14FF0FF3070BD204670BD48
:100EB000310202002DE9FF5F15468A460446DFF83D
:100EC000AC80F8440027D8E900103E46CDE9001078
:100ED00010E03AF816106A4602A800F0C5FF411C5F
:100EE00007D02178890603D5E269391891420DD8D7
:100EF0000744761C2078800602D5E069B84205DDFB
:100F0000AE42E6DB3AF816000028E2D1A069C01B29
:100F1000A0612046FFF70AFFD8E90010CDE90010D4
:100F2000002017E03AF818106A4602A800F09CFF6B
:100F3000B0F1FF3F81460BD000250DF1080B05E015
:100F4000D4E901211BF8050090476D1C4D45F7D3EE
:100F500008F10100B0428046E4DB206A3844206298
:100F60002046FFF7F9FEBDE8FF9F0000860602005D
:100F70002DE9F0418046D21D22F007020025D2E97A
:100F80000002F52915A614D0011E72F1000106DA3F
:100F90000023D0EB030063EB020211A608E0D8F8AF
:100FA00000108B0701D50FA602E0490701D50EA658
:100FB00001251146002408F1240704E000F01FFA7F
:100FC00030323A55641C50EA0102F7D12B463246C2
:100FD00021464046BDE8F04100F056BA000000004E
:100FE0002D0000002B0000002000000030B4002184
:100FF00000F1240408E002F00705D208303542EA87
:101000004372DB086554491C52EA0305F3D10468B6
:10101000002310A2250708D504F020040C4304D0B7
:10102000C46901230CA2641EC46130BC00F02CBA58
:1010300010B5044621461068FFF7A8FE0246204678
:10104000BDE810400023D1E7D21D22F00701D1E90D
:101050000023CBE70000000030000000F0B40D4694
:101060000188090502D5214C7C4402E01F4C7C44D8
:101070000E34002100F1240608E002F00F071209E7
:10108000E75D42EA03721B097754491C52EA0307E1
:10109000F3D102780023120704D5702D06D009B1D0
:1010A000022311342246F0BC00F0EEB901231034C3
:1010B000F8E770B504460D4621461068FFF766FE56
:1010C000024629462046BDE870400023C6E7D21DEF
:1010D00022F00703D3E90023C0E70368126843F056
:1010E000200303600823C3610023B7E7E80402007C
:1010F0002DE9F05F894604464FF0000ADFF874B12D
:10110000FB44C0F820A02046E1688847002874D03E
:10111000252806D0D4E901219047206A401C20628E
:10112000F1E700265F462046E1688847202805460B
:1011300007DB312D05D2781910F8200C08B10643D1
:10114000F1E7B00701D526F00406C4F81CA000277B
:10115000C4F818A02A2D09D028461FF0AFFF38B3D5
:1011600004EB8708303DC8F8185019E059F8041B03
:10117000204604EB87029161E1688847012F05460C
:1011800018D1E069002820DA26F020061DE0D8F802
:10119000180000EB800005EB40003038C8F818005C
:1011A0002046E168884705461FF088FF0028EED1F9
:1011B000012F0AD02E2D08D12046E16888477F1CD8
:1011C0000546022F46F02006C4DBA069002803DA9A
:1011D000404246F00106A061F00701D026F010065B
:1011E0006C2D0BD0682D09D04C2D39D06A2D35D0FF
:1011F000742D35D07A2D33D016E038E0E1682F46D3
:1012000020468847B842054609D16C2F26D04FF4B6
:101210008060E168064320468847054604E06C2F5D
:101220001AD04FF4807006430DB3A5F14100192880
:1012300002D8203546F400664A46294620462660F4
:101240004E46FFF7B3F880B101280BD0F61D26F00B
:10125000070000F1080956E74020E4E78020D8E7BE
:101260000020D6E706F104094DE7284652E7206A38
:10127000BDE8F09F7804020010B542485421FFF702
:10128000C4FB41485421FFF7C0FB40485421FFF7FD
:10129000BCFB3F493B483C4A3F4B08603D490A6024
:1012A0003A491960531C0365481C10650120086504
:1012B0003B48344A39A1784400F038FD20B9384819
:1012C00078440A3800F00CFE37482F4A35A178449C
:1012D00000F02CFD20B9344878440A3800F000FEB4
:1012E00032482A4A2FA1784400F020FD20B92F4827
:1012F00078440A3800F0F4FD40232248DC00002145
:10130000224600F0EFFC20B125487844543800F024
:10131000E7FD1D4822464023002100F0E3FC20B1F8
:1013200021487844543800F0DBFD18482246102349
:10133000002100F0D7FC002806D01C487844BDE806
:101340001040563800F0CCBD10BD104870B5006D8F
:1013500020F001040B4800F061FD0B4800F05EFD39
:101360000A4800F05BFD09E0206D20F001052046F1
:1013700000F054FD2046FFF7DEF82C46002CF3D198
:1013800070BD00002002002474020024C802002462
:101390000000002404000024080000247200000063
:1013A000D302020077000000BF020200AB0202007D
:1013B00070B505460C460A2000E06D1C00F018F8D8
:1013C00035B128780028F8D102E0641C00F010F84C
:1013D00014B120780028F8D1BDE870400A2000F050
:1013E00007B810B500F064FDBDE81040FFF76ABC17
:1013F00008B569468DF800000320ABBE08BD30B5C6
:10140000B0F10A0271F100034FEA900E4EEA817EBC
:10141000B0EB0E0061EB91014FEA101E4EEA017E27
:1014200010EB0E0041EB11114FEA102E4EEA016E47
:1014300010EB0E0041EB11214FEA104E4EEA014E27
:1014400010EB0E0041EB1141401841F100014FEA51
:10145000D00040EA41704FEAD1014FEA810444EAEA
:10146000907410EB800544EB01046D1944EB040407
:10147000521BA3414FF0000348BF0A3200D530BDD4
:10148000401C41F1000130BD2DE9F0470D46994661
:101490009246044600F124080168880604D5E069F4
:1014A00021F01001216000E00120A84201DD471B6E
:1014B00000E00027A1697A1902EB0900081AA0616F
:1014C0002078C00602D42046FFF730FC002608E052
:1014D000D4E901211AF806009047206A401C761CC6
:1014E00020624E45F4DB2078C0060AD52046FFF77F
:1014F0001DFC06E0D4E9012130209047206A401C01
:101500002062381EA7F10107F4DC07E0D4E90121CD
:1015100018F805009047206A401C2062281EA5F19B
:101520000105F3DC2046FFF717FC2078000602D502
:101530000220BDE8F0870120FBE72DE9FF4F0C46B4
:101540001E464FF0FF378BB0D2E90001DDF8608016
:101550000A908A46C1F30A5505B93D46002108465E
:101560004FF00000BAF1000F00F4400005DA00EB84
:1015700080004FF4400101EA50004FEA9059B9F160
:10158000010F00DDB9460A9850EA4A000ED044F631
:101590001050A5F2FF3545432F14B8F1000F1ED0AF
:1015A0007542291E1EDDC9F100021CE0B8F1010FD1
:1015B0004FF0000001D0302103E0F24305E0215458
:1015C000401CB042FBDB30460022002121540B9925
:1015D000C1F80880C1E900200FB0BDE8F08FBD1B45
:1015E0006D1CDEE74A4600DA694206A800F0FEFC00
:1015F00006AB93E8070003AB83E8070050460A995F
:101600001FF0B6F88DE80700A0F500501F380090D5
:101610000398002D0ADD42F21F014A4608440023C8
:1016200003A9039068461FF01FFB09E0A0F50050D6
:101630004A461F38002303A9039068461FF029FB80
:101640008DE807000004000C03D04FF0FF30410884
:1016500000E01046B8F1000F03D0002200921546BA
:101660001EE0751E05D4FFF7CAFE303262556D1EAE
:10167000F9D5B3460122084302D000227F1C04E0C2
:101680002078302801D100227F1E002A099784D0BB
:101690001DE0112D07DAFFF7B2FE303262556D1CE6
:1016A00050EA0102F5D1084302D00098C8B10EE01B
:1016B0000021681E05E0235C625C63542254401ED6
:1016C000491C8142F7DBAB46A81B401E0990002055
:1016D00004F80B000B98099AC0F80880C0E9002BA9
:1016E0007AE711264FF0000857E72DE9F04F8846BA
:1016F0000446D21D22F0070191B0D1E90001CDE9E5
:101700000A011FF00FFC02460B98C00F01D02D20DC
:1017100007E02068810701D52B2002E0202101EAA3
:10172000C000032A099001D0072A05DB0346414681
:10173000204600F01BFC0BE12078800601D5E06913
:1017400000E00620B8F1650F814606D0B8F1660FBB
:1017500018D0B8F1670F70D131E00020B9F1110F46
:10176000009001DB112301E009F101030AAA01A99C
:101770000CA8FFF7E2FEDDE90C70002609F1010577
:10178000834647E001204B4600904FF000470AAAED
:1017900001A90CA8FFF7D1FEDDE90DB00C995D465B
:1017A000002610B909F101000D18B9EB050003D4AA
:1017B000C0F1FF3609F10105A5EB09002BE0B9F1F5
:1017C000010F01DA4FF001090020B9F1110F00906B
:1017D000484601DD112300E003460AAA01A90CA82E
:1017E000FFF7ABFEDDE90C704D46002683462078FE
:1017F00000070AD4AB4500DA5D4601A8012D04DDDF
:10180000411911F8011C302907D04F4502DA17F1B0
:10181000040F04DA012082460FE06D1EEEE7002F70
:1018200002DCED1B3E4403E0781CA84200DD7D1C79
:10183000B81B00F1010A4FF000472078000703D4DD
:10184000AA4501DB4FF0FF3A0021B7F1004F0DF13F
:1018500043088DF8431024D002202B23002F01DAF7
:101860007F422D230A21021EA0F1010000DC5FB19E
:1018700097FBF1FC97FBF1F201FB1C7C17460CF186
:10188000300C08F801CDEEE7A8F1010003702188C3
:10189000090501D5452100E06521A0F1010800F806
:1018A000011C09980FA9A1EB0807FF1D00B1012039
:1018B000411901EBEA70A1693844081A401EA06181
:1018C0002078C00602D42046FFF730FA099828B1E4
:1018D000D4E901219047206A401C20622078C0068C
:1018E00022D52046FFF722FA1EE0002E04DBB34586
:1018F00002DD01A8805D00E03020D4E9012190479D
:10190000206A401C2062761CAAF101005FEA000AEE
:101910000AD100F027FBC0680168405CD4E90121CE
:101920009047206A401C2062281EA5F10105DCDCDE
:1019300007E0D4E9012118F8010B9047206A401C08
:101940002062381EA7F10107F3DC2046FFF704FAF6
:10195000032011B041E600002DE9F04F04460D468A
:10196000D21D22F0070089B0D0E9009748463946D9
:101970001FF0D8FA0246F80F01D02D2307E02068A7
:10198000810701D52B2302E0202101EAC0038DF855
:1019900020300BB1012000E00020032A824601D054
:1019A000072A04DB2946204600F0E0FA3FE12078D0
:1019B000800601D40D2500E0E569C7F30A560D2D18
:1019C00049DA00214FEA175B08464FF00000002F6C
:1019D00000F4400007DA00EB80004FF4400100EB18
:1019E000D07001EA60008115012901DD4FF0FF315F
:1019F00000224FEA850CBCF1180F06D31346ACF158
:101A000018004FF08052C24003E04FF4801323FAD5
:101A10000CF30CF10C0CBCF1200F04D3ACF1200C36
:101A200009FA0CF001E007FA0CF000294FF0004829
:101A300001DD18B90FE00ED140450CD319EB0209B6
:101A40005F4121B9404502D19F4329EA0209BBEB1E
:101A5000175F00D0761C2088000502D57B487844AB
:101A600002E07A487844193808AA302302F80A308C
:101A7000037C0AF10101002E0AF1020A53546A465E
:101A800002DC4FF0300101E04FF031014FF001086E
:101A90008DF8001002D0A6F2FF3603E059EA4701A4
:101AA00000D06B4E002D02DC2178090704D54FF0E1
:101AB00002082E218DF80110C44600210BE0C7F367
:101AC00003433F01C35C491C6D1E02F80830052921
:101AD00008F1010801DA002DF1DC00210CE000EB37
:101AE0001973491C1B786D1E082902F808304FEA4B
:101AF000091908F1010801DA002DF0DC21688B06D4
:101B000002D516E0A8F10108E04505DD02EB080367
:101B100013F8013C302BF5D0B8F1000F09DD02EBD2
:101B2000080313F8013C2E2B03D1090701D4A8F1B7
:101B30000108002D05DD3E2102F808106D1E08F198
:101B40000108407C002E02F8080008F1010804DAC0
:101B50002D20764202F8080002E02B2002F808004F
:101B60000A214FF47A70864208F101080BDB96FBDC
:101B7000F0F3303302F8083096FBF0F308F1010877
:101B800000FB136601E0642E0CDB642096FBF0F38F
:101B9000303302F8083096FBF0F308F1010800FB3F
:101BA000136601E00A2E06DB96FBF1F0303002F8F6
:101BB000080008F1010896FBF1F001FB10603030DD
:101BC00002F80800A16908F1010808EB050202EB20
:101BD0000A00081AA0612078C00602D42046FFF748
:101BE000A5F8216A08AE01EB0A00206204E0D4E9FE
:101BF000012116F8010B9047BAF1010AF7D22078BB
:101C0000C00602D52046FFF791F86E4609E016F8A7
:101C1000010B3E280FD0D4E901219047206A401CD7
:101C20002062B8F10108F2D22046FFF795F809B01A
:101C30000320BDE8F08F206A2844206203E0D4E945
:101C40000121302090476D1EEBD3F8E74AFB0100DD
:101C500002FCFFFF01694A1C02610878704700B569
:101C60008FB0CDE901310021059105497944CDE9D5
:101C7000031011466846FFF73BFA0FB000BD0000A5
:101C8000E5FFFFFF10B5436913B1AFF3008001E03A
:101C9000FFF785F8012010BD127800F124010A70C9
:101CA00000224A700122EDE711684FF0FF32E9E7A8
:101CB00010B5436913B1AFF3008001E0FFF7FAF804
:101CC000012010BD128800F1240182840022C28408
:101CD0000122EDE711684FF0FF32E9E7007B00F0E9
:101CE0008000704770B5C468A50713D0650211D491
:101CF000B2F5807F09D0B2F5007F06D0B2F5806FD3
:101D000008D1012300F1240106E05D1E6FF07F463B
:101D1000B54201D3012070BD0161C361416024F46B
:101D200070611143C160002070BD00002DE9F041D9
:101D30000C461646070047D0104600F06FF8207892
:101D4000611C61280AD0722802D077283CD102E0B9
:101D50000125002405E00225042402E0082448F2BD
:101D6000020511F8010B2B2806D0622809D011F8C2
:101D7000010C74280AD00BE045F0030544F002047E
:101D8000EFE745F0040544F00104EAE744F01004ED
:101D90003846214600F0ABF8411C15D000213161D6
:101DA00071604FF40071F560F1617061200704D536
:101DB00030460222002100F07DFA306D40F0010033
:101DC00030653046BDE8F0810020FBE72DE9F041A9
:101DD0000D460646104C206DC10704D0410804D0C2
:101DE00020F00104F7E722460EE05420FEF774FBD2
:101DF00007000ED0206D47F00101084354212065F3
:101E00003846FEF702FE3A4629463046BDE8F04124
:101E10008CE70020D6E70000200200242DE9F047DF
:101E200004464FF0FF380026C568D4E90497A80798
:101E300018D0204600F0FAFA384600F062F8002880
:101E400000DA4646280502D54846FEF774FB4C21C9
:101E50002046FEF7DAFD206D20F0010020653046B7
:101E6000BDE8F0874046FBE72DE9F04116460C46F9
:101E7000054600F06FF8036893F80101012807D0C8
:101E8000FF2C12D8185D80B101202C70BDE8F081C4
:101E9000D3F807013246214603F20713C718284634
:101EA000BC46BDE8F041002360474FF0FF30EDE74E
:101EB00010B5002102A0FFF77BFA012010BD000041
:101EC000534947414252543A2041626E6F726D61EC
:101ED0006C207465726D696E6174696F6E000000CC
:101EE00010B500F0E7FABDE81040FEF7EBBE0EB506
:101EF000CDE9000100F019FB029069460120ABBE5C
:101F00000EBD08B5694600900220ABBE08BD1FB5E6
:101F10008DE8070069460520ABBE04B010BD1FB5B3
:101F20008DE80F0069460620ABBEF6E708B56946A6
:101F300000900920ABBE08BD1CB5CDE90001694683
:101F40000A20ABBE1CBD704708B5694600900C2046
:101F5000ABBE08BD10B500F005F8001D10BD00BFF8
:101F6000F1F1010000487047E00100242DE9F04143
:101F70001F46044603260168072A01F4006004DBBB
:101F800008B116A505E016A503E008B115A500E007
:101F900015A521F010002060A069C01EA0610FB13E
:101FA000401EA0612046FEF7C1FE4FB1D4E90121D9
:101FB00038469047206A401C2062C01C206206E020
:101FC000206AFAE7D4E9012115F8010B9047761E43
:101FD000F8D22046FEF7C0FEBDE8F0814E414E002B
:101FE0006E616E00494E4600696E66002DE9F0474D
:101FF000814616468AB0354878440DC88DE80D00F4
:1020000032487844801C03AC0DC884E80D0041F6CA
:102010009B300844372190FBF1F290FBF1F5A5F1DC
:10202000800501FB12041B3C02D56442012000E044
:102030000020DFF898A080460027FA44AAF1BE0AE3
:102040000EE0E0070AD03246684607EB470101235D
:102050000AEB81011EF01DFE8DE8070064107F1C55
:10206000002CEED1194F7F44AE3F19E0E80715D0A0
:1020700007EB04100DF1180A90E80E008AE80E0034
:10208000C068F04201D1981908903246012306A990
:1020900003A81EF0FEFD03AB83E807006D10641C6F
:1020A000002DE3D14FF0010332466946B8F1000F2D
:1020B00003A802D01EF0D8FD01E01EF0EAFDC9E938
:1020C0000001C9F808200AB0BDE8F08740F6010019
:1020D0002DE9F05F054617460C46C86820F420102D
:1020E00040F48000C860800602D5084600F0C1F9BF
:1020F000E06841F282014FF0FF3A0140022903D02B
:10210000204600F053F9B9E000F42041B1F5004F4A
:102110000FD1C00306D56168E06A884200D808463E
:10212000606006E02069E06260606069FFF70CFFB4
:10213000A061A0680022EEB200280DDAE1688B05EC
:102140000AD4C043A06041F490302260E06060682F
:10215000411C61600670AAE0E0689146226040F48C
:102160000050E060206978BB6069FFF7DFFE04F192
:1021700024054FF00108A8B1A08910F4407F08D0D1
:10218000E069FEF7A9F9206118B1E06840F4006049
:1021900017E0C4F81C802561E06820F4407040F42A
:1021A00080600EE0E069FEF797F900282061F0D02A
:1021B000E06840F4006010F4407FE06002D140F439
:1021C0008070E06020696060E06825696FF0010B55
:1021D000C1051ED56168E06A884200D80846411BE7
:1021E00004D02246284600F0EBF8E8BB1FB1E562B8
:1021F000C4E9015959E0681CE0626060E069401E72
:10220000A060E06840F48030E06030462E70BDE8A9
:10221000F09F17B100F480320AE06068411C6160F1
:102220000670E0680A2E40F48030E06006D000229C
:10223000E16A6068814203D90B4602E00122F7E7B8
:102240000346B4F80CC05B1B5FEA4C5C04D4D4F8C2
:102250001CC09C4500DD02B3814200D80146002B22
:10226000A1EB0008E56200E008E0C4E9015907DDE0
:1022700022461946284600F0A3F808B15046C6E7A2
:10228000B8F1000F09D0A169E5626560A1EB080013
:10229000A061E06840F01000E06047B16168A069AB
:1022A000E562491B08446560A0615846AFE73046C7
:1022B000ADE700002DE9F041044616460D4647699A
:1022C000007B80072ED03846FFF730FE50BB3EB370
:1022D000012E02D0022E25D104E0204600F004F9A0
:1022E00005441DE03846FFF72FFEE168002841F065
:1022F0001001E16005DA204600F058F80120BDE841
:10230000F081C9030BD56268E16A914200D8114699
:10231000A26911442269891A814200DD08460544F8
:10232000002D01DA0220EAE7E16A6068E268814292
:1023300006D29103E06203D522F4003141F010028D
:10234000A6690027AE4213DCE16A814201D90B463F
:1023500000E0034603EB060C2369ACEB030CAC4531
:1023600006DD814201D98C4600E084469C4505D1BA
:10237000A760276042F02000A5620DE0AD1BE66972
:10238000AE1B8142A66000D90846C01A281A2060F8
:102390005819606022F0200003490840E0600020E6
:1023A00084F84870ABE70000BFCFD7FFC16821F4C5
:1023B000001141F08001C16000218160016070471F
:1023C0002DE9F74F15460C464FF0FF3B3848D768CC
:1023D000D2F814A0074209D05046A969FFF7ACFD16
:1023E000002819DB3248C0430740EF604FF0004936
:1023F0006FF000484C4501D3464600E02646009960
:102400003B4650463246FFF782FDA96920F0004264
:10241000B21A1144A96128B12846FFF7C7FF5846F0
:10242000BDE8FE8FA41BE5D10020F9E770B5044696
:102430000569C06A6168884200D80846E16821F4ED
:102440002011E160C90312D5A84208D02246411BE1
:102450002846FFF7B5FF10B14FF0FF3070BD0020E8
:10246000E562C4E90150E06820F48030E0600020BB
:1024700070BD10B50446C06820F02000E060A16A7D
:10248000A06988420DD02046FFF7D0FFE06820F415
:10249000405040F01000E060A06AA0612069E06256
:1024A000606044F24001E0688843E06010BD0000D5
:1024B0001000020010B5014602A0FEF779FF0120CE
:1024C00010BD000053494752545245443A205265CA
:1024D0006469726563743A2063616E2774206F705B
:1024E000656E3A200000000010B50146C2689007F2
:1024F00003D0900607D5886A0AE0FEF77FFB01212A
:102500000160881E10BD8B69486818440B69C01AA9
:1025100091F848301BB191F84910401A10BD1103D1
:10252000FCD50028FADD401E10BD10B5431C02E0AA
:1025300010F8011B71B18107FAD14FF0013202C8C6
:102540008C1A8C4314EAC211F9D0C01A0A0603D0BF
:10255000C01E10BDC01A10BD0A0401D0801E10BDDF
:102560000902FCD0401E10BD30B44FF0013C50F8C1
:10257000042BCCFA52F451F8043BD51A20D1FCB903
:1025800050F8042BCCFA52F451F8043BD51A17D169
:10259000B4B950F8042BCCFA52F451F8043BD51AD4
:1025A0000ED16CB950F8042BCCFA52F451F8043B1C
:1025B000D51A05D1002CDAD030BC4FF0000070479E
:1025C00029BAB1FA81F111F01801D1F1200084404B
:1025D000F2D1CA40CB4012F0FF0213F0FF0330BC2F
:1025E000D01A704700000000FFE7FEE7000000007F
:1025F00080B594B013901291139800684AF20001CC
:10260000C4F20001884221D1FFE7139840F244311F
:10261000C2F20041086012984863002008900A90B6
:102620000B9002210C91012107910D910E900F90BA
:1026300045F29C30C2F2004009900AA904F018FC4F
:102640000799089A099804F0CFFA61E01398006896
:102650004AF20041C4F2000188421FD1FFE71398FB
:1026600040F2A431C2F20041086012984863002091
:1026700005900A900B9002210C910D910E900F90F5
:1026800045F23C40C2F2004006900AA904F0F0FB7B
:10269000059A0698102104F0A7FA38E0139800680C
:1026A0004DF20041C4F2000188422FD1FFE7139898
:1026B00040F22C41C2F200410860129848630020A9
:1026C00003900A900B90022101910C91012102913B
:1026D0000D910E900F9045F2DC40C2F20040049044
:1026E0000AA904F0C5FB019A029B049869460B6095
:1026F000114604F049FC029A0498114604F064FB68
:102700000299039A049804F06FFAFFE7FFE7FFE7E6
:10271000139805F0C1FC14B080BD0000000000005B
:1027200080B58EB00D90ADF832100B92ADF82A3016
:10273000BDF832000190002002900390BDF82A00FD
:10274000082804DCFFE7BDF82A000490FFE7BDF885
:102750002A000C2803D1FFE709200490FFE7BDF809
:102760002A00102803D1FFE70A200490FFE7BDF8F4
:102770002A00142803D1FFE70B200490FFE7BDF8DF
:102780002A00182803D1FFE70C200490FFE7BDF8CA
:102790002A00202803D1FFE70D200490FFE7BDF8B1
:1027A0002A00302803D1FFE70E200490FFE7BDF890
:1027B0002A00402803D1FFE70F200490FFE7002004
:1027C000059006900790089009900D980B9A01A922
:1027D00004F08AFA0EB080BD84B08DF80F0002912B
:1027E000ADF806209DF80F000146009123281DD862
:1027F0000099DFE801F012131415161B1B1B1B1B9D
:102800001B1B1B1B1B1B1B1B1B1B1B1B1B1B1B1B18
:102810001B1B1B1B1B1B1718191A08E007E006E0FF
:1028200005E004E003E002E001E000E0FFE7002053
:1028300004B0704700000000002070470000000056
:1028400080B582B044F61040C2F20040009042F2DF
:10285000B811C2F200410022019211F0A9FC0098C7
:1028600041F6B811C2F2004111F082FC019802B0A9
:1028700080BD00000000000080B584B0039002918C
:10288000039944F61040C2F20040009011F070FC31
:10289000009811F011FC03990298026840F2285048
:1028A000C2F2004001903030FEF716F8019802990C
:1028B0000968A0F86010426E039802990968904771
:1028C000002004B080BD000083B0029001918DF81B
:1028D000032000208DF802009DF9020003B070472C
:1028E00080B586B00490ADF80E1000208DF80D0074
:1028F00044F61040C2F20040D0F8BC0202900298A8
:10290000D0F8140220B1FFE701208DF8170013E082
:102910000499BDF80E2044F61040C2F20040019028
:1029200011F046FC019811F04FFD8DF80D009DF857
:102930000D008DF81700FFE79DF8170006B080BD69
:1029400080B544F6DC70C2F2004002F015F880BD9C
:1029500080B544F66470C2F2004002F00DF880BD0C
:1029600080B544F6EC60C2F2004002F005F880BD8C
:1029700080B545F2AC20C2F2004001F0FDFF80BD01
:1029800080B545F22430C2F2004001F0F5FF80BD71
:1029900080B545F25400C2F2004001F0EDFF80BD69
:1029A00080B545F2CC00C2F2004001F0E5FF80BDE9
:1029B00080B545F24410C2F2004001F0DDFF80BD59
:1029C00080B545F2BC10C2F2004001F0D5FF80BDD9
:1029D00080B545F23420C2F2004001F0CDFF80BD49
:1029E00083B002900298016801201022C4F2020212
:1029F0009142009000F0A380FFE702980168012057
:102A00002822C4F202029142009000F09880FFE771
:102A10000298016801204022C4F202029142009013
:102A200000F08D80FFE70298016801205822C4F26F
:102A300002029142009000F08280FFE70298016854
:102A400001207022C4F202029142009077D0FFE789
:102A50000298016801208822C4F20202914200908B
:102A60006DD0FFE7029801680120A022C4F20202A3
:102A70009142009063D0FFE7029801680120B822DC
:102A8000C4F202029142009059D0FFE70298016817
:102A9000012040F21042C4F20202914200904ED056
:102AA000FFE702980168012040F22842C4F20202C6
:102AB0009142009043D0FFE702980168012040F264
:102AC0004042C4F202029142009038D0FFE70298DF
:102AD0000168012040F25842C4F202029142009083
:102AE0002DD0FFE702980168012040F27042C4F245
:102AF00002029142009022D0FFE702980168012073
:102B000040F28842C4F202029142009017D0FFE7DF
:102B100002980168012040F2A042C4F202029142F0
:102B200000900CD0FFE7029800684FF64831CBF6D2
:102B3000FD710844B0FA80F040090090FFE700986A
:102B4000C00740B3FFE70298007810384AF6AB217F
:102B5000CAF6AA21A0FB011000090190019800F01B
:102B6000070141F2C060C0F60200405C0299C865EE
:102B70000198042807D3FFE702990868042262F34A
:102B80000900886506E00299086840F2FF32904328
:102B90008865FFE705E00299086820F0FF00886576
:102BA000FFE70298806D03B070470000000000004E
:102BB00084B0039003980068019003980168012095
:102BC00045F20842C5F60202914200904ED0FFE75E
:102BD00003980168012045F21C42C5F602029142A9
:102BE000009043D0FFE703980168012045F230428E
:102BF000C5F602029142009038D0FFE703980168C1
:102C0000012045F24442C5F60202914200902DD0C7
:102C1000FFE703980168012045F25842C5F6020219
:102C20009142009022D0FFE703980168012045F20D
:102C30006C42C5F602029142009017D0FFE703985C
:102C40000168012045F28042C5F6020291420090DF
:102C50000CD0FFE7039800684AF66C31CAF2FD71A8
:102C60000844B0FA80F040090090FFE70098C007E0
:102C700010B3FFE70398007808384CF6CD41CCF646
:102C8000CC41A0FB011000090290029945F600001A
:102C9000C5F6020000EB810003990866039945F62A
:102CA0008000C5F602004866029800F01F0101206E
:102CB00088400399886635E00398007810384AF612
:102CC000AB21CAF6AA21A0FB0110000902900198CD
:102CD00040F2B841C4F2020188420CD8FFE70198E3
:102CE00040F21041C4F20201884204D3FFE7029887
:102CF00008300290FFE7029940F60000C4F202009B
:102D000000EB810003990866039940F68000C4F245
:102D100002004866029800F01F01012088400399D4
:102D20008866FFE704B0704783B00290029800798C
:102D300001900198002800F08A80FFE70198082898
:102D400000F28580FFE702980168012045F2084201
:102D5000C5F60202914200904ED0FFE7029801684A
:102D6000012045F21C42C5F602029142009043D078
:102D7000FFE702980168012045F23042C5F60202E1
:102D80009142009038D0FFE702980168012045F297
:102D90004442C5F60202914200902DD0FFE702980E
:102DA0000168012045F25842C5F6020291420090A6
:102DB00022D0FFE702980168012045F26C42C5F677
:102DC00002029142009017D0FFE7029801680120AB
:102DD00045F28042C5F60202914200900CD0FFE716
:102DE000029800684AF66C31CAF2FD710844B0FAE4
:102DF00080F040090090FFE70098C00780B1FFE72E
:102E0000019945F6FC00C5F6020000EB810002992D
:102E1000C866029945F64010C5F6020008670FE043
:102E2000019940F6FC00C4F2020000EB8100029917
:102E3000C866029940F64010C4F202000867FFE736
:102E40000198411E0120884002994867FFE703B0BE
:102E5000704700000000000085B0049000208DF84D
:102E60000F000498806918BBFFE70498806A0290FD
:102E700003281BD80299DFE801F0020D021804981C
:102E800090F82F00C00720B1FFE701208DF80F0058
:102E9000FFE70CE00498C06AB0F1C07F04D1FFE7FF
:102EA00001208DF80F00FFE701E000E0FFE747E0B9
:102EB00004988069B0F5005F26D1FFE70498806A26
:102EC000019003281ED80199DFE801F002060211E3
:102ED00001208DF80F0016E0049890F82F00C0072D
:102EE00020B1FFE701208DF80F00FFE70BE0049809
:102EF000C06AB0F1C07F04D1FFE701208DF80F0058
:102F0000FFE700E0FFE71AE00498806A00900328DA
:102F100004D3FFE70098032804D00EE001208DF8C9
:102F20000F000BE0049890F82F00C00720B1FFE7D6
:102F300001208DF80F00FFE700E0FFE7FFE7FFE764
:102F40009DF80F0005B0704789B008900791069270
:102F500005930898806D04900898806D03900898F8
:102F6000016801201022C4F202029142029000F096
:102F70000381FFE70898016801202822C4F20202B9
:102F80009142029000F0F880FFE708980168012064
:102F90004022C4F202029142029000F0ED80FFE76D
:102FA0000898016801205822C4F20202914202905E
:102FB00000F0E280FFE70898016801207022C4F267
:102FC00002029142029000F0D780FFE70898016862
:102FD00001208822C4F202029142029000F0CC80CB
:102FE000FFE7089801680120A022C4F20202914282
:102FF000029000F0C180FFE7089801680120B82224
:10300000C4F202029142029000F0B680FFE70898F5
:103010000168012040F21042C4F202029142029083
:1030200000F0AA80FFE708980168012040F22842DA
:10303000C4F202029142029000F09E80FFE70898DD
:103040000168012040F24042C4F202029142029023
:1030500000F09280FFE708980168012040F2584292
:10306000C4F202029142029000F08680FFE70898C5
:103070000168012040F27042C4F2020291420290C3
:103080007AD0FFE708980168012040F28842C4F234
:103090000202914202906FD0FFE708980168012078
:1030A00040F2A042C4F202029142029064D0FFE7D3
:1030B00008980168012040F2B842C4F2020291422D
:1030C000029059D0FFE708980168012045F20842B4
:1030D000C5F60202914202904ED0FFE708980168BF
:1030E000012045F21C42C5F602029142029043D0F3
:1030F000FFE708980168012045F23042C5F6020258
:103100009142029038D0FFE708980168012045F20B
:103110004442C5F60202914202902DD0FFE7089882
:103120000168012045F25842C5F602029142029020
:1031300022D0FFE708980168012045F26C42C5F6ED
:1031400002029142029017D0FFE70898016801201F
:1031500045F28042C5F60202914202900CD0FFE790
:10316000089800684AF66C31CAF2FD710844B0FA5A
:1031700080F040090290FFE70298C00770B1FFE7B6
:103180000898416E806E48600898C06E28B1FFE7CD
:103190000898016F406F4860FFE7FFE708980168F3
:1031A00001201022C4F202029142019000F0A3809B
:1031B000FFE70898016801202822C4F20202914228
:1031C000019000F09880FFE70898016801204022F4
:1031D000C4F202029142019000F08D80FFE708984E
:1031E000016801205822C4F202029142019000F0CD
:1031F0008280FFE70898016801207022C4F2020271
:103200009142019077D0FFE7089801680120882259
:10321000C4F20202914201906DD0FFE70898016864
:103220000120A022C4F202029142019063D0FFE784
:10323000089801680120B822C4F20202914201906C
:1032400059D0FFE708980168012040F21042C4F20B
:103250000202914201904ED0FFE7089801680120D8
:1032600040F22842C4F202029142019043D0FFE7AB
:1032700008980168012040F24042C4F202029142E3
:10328000019038D0FFE708980168012040F25842C9
:10329000C4F20202914201902DD0FFE70898016824
:1032A000012040F27042C4F202029142019022D009
:1032B000FFE708980168012040F28842C4F2020248
:1032C0009142019017D0FFE708980168012040F271
:1032D000A042C4F20202914201900CD0FFE708988C
:1032E00000684FF64831CBF6FD710844B0FA80F023
:1032F00040090190FFE70198C00750B3FFE7089825
:10330000C06D00F01F013F20884004998860089834
:103310000168086820F48020086005980899096809
:10332000486008988068402809D1FFE70698089906
:1033300009688860079808990968C86008E00798D4
:10334000089909688860069808990968C860FFE7C5
:1033500082E008980168012045F20842C5F60202A1
:10336000914200904ED0FFE708980168012045F295
:103370001C42C5F602029142009043D0FFE7089834
:103380000168012045F23042C5F6020291420090E8
:1033900038D0FFE708980168012045F24442C5F69D
:1033A0000202914200902DD0FFE7089801680120A9
:1033B00045F25842C5F602029142009022D0FFE742
:1033C00008980168012045F26C42C5F6020291425C
:1033D000009017D0FFE708980168012045F280426D
:1033E000C5F60202914200900CD0FFE708980068F1
:1033F0004AF66C31CAF2FD710844B0FA80F0400917
:103400000090FFE70098C00720B3FFE70898C06D61
:1034100000F01F0101208840039948600598089931
:103420000968486008988068402809D1FFE7069835
:10343000089909688860079808990968C86008E0D1
:103440000798089909688860069808990968C8600B
:10345000FFE700E0FFE7FFE709B07047000000006A
:1034600081B000904EF6FC51CEF20001086840F0A9
:103470008070086041F6B071CEF2000108684CF629
:103480005562CCF2AC521043086041F20401CEF216
:1034900000010020086041F20002CEF20002116833
:1034A00041F001011160009944F24022C0F20F0284
:1034B0004A4340F27441C2F200410A600A6844F68D
:1034C000D353C1F26203A2FB0332920940F2784364
:1034D000C2F200431A6009684DF68362C4F21B32DF
:1034E000A1FB0221890C40F27C42C2F20042116031
:1034F00040F28C41C2F20041086001B07047000008
:10350000704700000000000080B54FF4806004F0B8
:103510003BFE4FF4805004F037FE80BD00000000F9
:1035200081B0EFF3108072B60090FFE7FEE7000075
:1035300080B545F29C30C2F2004003F0E1FE80BD50
:1035400080B545F23C40C2F2004003F0D9FE80BD98
:1035500080B545F2DC40C2F2004003F0D1FE80BDF0
:1035600084B002900298406B009002980068D0F8F6
:1035700084004FF6FC718843009940EA810002996B
:103580000968C1F8840002980068D0F8840020F42B
:103590007F00029A1168926B40EA0240C1F88400F1
:1035A0000298816B00980844009002980068D0F857
:1035B00088006FF38F00009940EA81000299096842
:1035C000C1F8880002980068D0F8880020F4FE0056
:1035D000029A1168D26B40EA0240C1F88800029852
:1035E000C16B009800EB4100009002980068D0F891
:1035F000A0006FF38F00009940EA810002990968EA
:10360000C1F8A00002980068D0F8A00020F4FE00E5
:10361000029A1168126C40EA0240C1F8A0000299B7
:10362000086C496C009A00FB012000900298006829
:10363000D0F8B0006FF38F00009940EA8100029942
:103640000968C1F8B00002980068D0F8B00020F412
:10365000FE00029A1168926C40EA0240C1F8B00084
:103660000299886CC96C009A00FB012000900298B6
:103670000068D0F8AC006FF38F00009940EA810039
:1036800002990968C1F8AC000299086D496D009A69
:1036900000FB0120009002980068D0F8F0006FF362
:1036A0008F00009940EA810002990968C1F8F00092
:1036B00002980068D0F8F00020F47C10029A11689B
:1036C000926D40EA0240C1F8F0000298816D0098C6
:1036D00000EB4100009002980068D0F8C0006FF342
:1036E0008F00009940EA810002990968C1F8C00082
:1036F00002980068D0F8C00020F47C10029A11688B
:10370000D26D40EA0240C1F8C00002980068D0F8CB
:10371000C00020F07C50029A1168126E40EA0260EC
:10372000C1F8C00002994A6B4AF60040C4F200009A
:1037300000EB8200C86602998A6BC86E00EB8200BB
:1037400008670299CA6B086F00EBC20048670299CC
:103750000A6C4B6C486F5A4300EB820088670299F1
:103760008A6CCB6C886F5A4300EB8200C867029961
:103770000A6D4B6DC86F5A4300EB8200C1F88000A0
:1037800002998A6DD1F8800000EBC200C1F8840074
:103790000299CA6D8B6ED1F884005A4300EB820007
:1037A000C1F8880002990A6E8B6ED1F888005A43DE
:1037B00000EB8200C1F890000298D0F890004DF222
:1037C000FD31C4F2000188420FD3FFE70299D1F81E
:1037D0009C0040F02000C1F89C000299032081F871
:1037E000980001208DF80F0017E00298C06E01903C
:1037F000FFE701980299D1F89010884208D2FFE7BC
:10380000019900200860FFE7019804300190F0E77B
:10381000FFE700208DF80F00FFE79DF80F0004B0D0
:10382000704700000000000088B0079006910592E4
:1038300004930698406848B9FFE7069801688268D3
:103840000069104340EA8140039009E0069801684E
:10385000826800691043084340F080400390FFE70E
:103860000698D0F820C0C16842698369C06940EAFF
:103870000C601843104340EA014002900798826EA2
:10388000D0F884000499514300EB81000190039823
:10389000019908600198043001900298019908602C
:1038A00001980430019000200090FFE700980699ED
:1038B000CA6841F2B061C0F60201895C88420DD24B
:1038C000FFE7059800994058019908600198043075
:1038D0000190FFE7009804300090E7E708B07047D8
:1038E00080B584B04EF60000C1F6F1700068039018
:1038F0004EF60400C1F6F170006802904EF6080022
:10390000C1F6F17000680190019903980844039092
:10391000039888B1FFE7039840F28411C2F2004196
:103920000091023108220CF053FA009902981231EA
:1039300004220CF04DFAFFE704B080BD0000000047
:1039400080B58AB0089004F03BFE0490089828B92E
:10395000FFE701208DF8270000F0AABC089890F836
:10396000350002280ED0FFE7089980204865FFE760
:103970000899002081F83400FFE701208DF8270026
:1039800000F096BC0898016801201022C4F20202DF
:103990009142039000F0A380FFE70898016801209E
:1039A0002822C4F202029142039000F09880FFE7BF
:1039B0000898016801204022C4F20202914203905B
:1039C00000F08D80FFE70898016801205822C4F2BA
:1039D00002029142039000F08280FFE7089801689C
:1039E00001207022C4F202029142039077D0FFE7D7
:1039F0000898016801208822C4F2020291420390D3
:103A00006DD0FFE7089801680120A022C4F20202ED
:103A10009142039063D0FFE7089801680120B82223
:103A2000C4F202029142039059D0FFE7089801685E
:103A3000012040F21042C4F20202914203904ED0A3
:103A4000FFE708980168012040F22842C4F2020210
:103A50009142039043D0FFE708980168012040F2AB
:103A60004042C4F202029142039038D0FFE7089826
:103A70000168012040F25842C4F2020291420390D0
:103A80002DD0FFE708980168012040F27042C4F28F
:103A900002029142039022D0FFE7089801680120BA
:103AA00040F28842C4F202029142039017D0FFE72D
:103AB00008980168012040F2A042C4F2020291423B
:103AC00003900CD0FFE7089800684FF64831CBF61A
:103AD000FD710844B0FA80F040090390FFE70398B5
:103AE000C00780B1FFE708980168086820F01E0051
:103AF000086008980168486920F0800048610898CB
:103B00000068059009E008980168086820F00E0038
:103B10000860089800680590FFE708980168012090
:103B20001022C4F202029142029000F00381FFE7EA
:103B30000898016801202822C4F2020291420290F2
:103B400000F0F880FFE70898016801204022C4F2E5
:103B500002029142029000F0ED80FFE708980168B0
:103B600001205822C4F202029142029000F0E28049
:103B7000FFE70898016801207022C4F20202914216
:103B8000029000F0D780FFE70898016801208822A2
:103B9000C4F202029142029000F0CC80FFE7089844
:103BA00001680120A022C4F202029142029000F0BA
:103BB000C180FFE7089801680120B822C4F2020220
:103BC0009142029000F0B680FFE70898016801205A
:103BD00040F21042C4F202029142029000F0AA8028
:103BE000FFE708980168012040F22842C4F202026F
:103BF0009142029000F09E80FFE708980168012042
:103C000040F24042C4F202029142029000F09280DF
:103C1000FFE708980168012040F25842C4F202020E
:103C20009142029000F08680FFE708980168012029
:103C300040F27042C4F20202914202907AD0FFE751
:103C400008980168012040F28842C4F202029142C1
:103C500002906FD0FFE708980168012040F2A0426F
:103C6000C4F202029142029064D0FFE70898016812
:103C7000012040F2B842C4F202029142029059D0AF
:103C8000FFE708980168012045F20842C5F60202E4
:103C9000914202904ED0FFE708980168012045F25A
:103CA0001C42C5F602029142029043D0FFE70898F9
:103CB0000168012045F23042C5F6020291420290AD
:103CC00038D0FFE708980168012045F24442C5F664
:103CD0000202914202902DD0FFE70898016801206E
:103CE00045F25842C5F602029142029022D0FFE707
:103CF00008980168012045F26C42C5F60202914223
:103D0000029017D0FFE708980168012045F2804231
:103D1000C5F60202914202900CD0FFE708980068B5
:103D20004AF66C31CAF2FD710844B0FA80F04009DD
:103D30000290FFE70298C00738B1FFE70898016ECC
:103D4000086820F480700860FFE708980068102178
:103D5000C4F20201884200F08180FFE70898006801
:103D60002821C4F20201884278D0FFE70898006851
:103D70004021C4F20201884270D0FFE70898006831
:103D80005821C4F20201884268D0FFE70898006811
:103D90007021C4F20201884260D0FFE708980068F1
:103DA0008821C4F20201884258D0FFE708980068D1
:103DB000A021C4F20201884250D0FFE708980068B1
:103DC000B821C4F20201884248D0FFE70898006891
:103DD00040F21041C4F2020188423FD0FFE7089848
:103DE000006840F22841C4F20201884236D0FFE761
:103DF0000898006840F24041C4F2020188422DD088
:103E0000FFE70898006840F25841C4F20201884276
:103E100024D0FFE70898006840F27041C4F2020124
:103E200088421BD0FFE70898006840F28841C4F23E
:103E30000201884212D0FFE70898006840F2A041D2
:103E4000C4F20201884209D0FFE70898006840F2F6
:103E5000B841C4F20201884207D1FFE7089801681F
:103E6000086820F00100086006E00898016808680A
:103E700020F001000860FFE7FFE705980068C00731
:103E8000C8B1FFE704F09CFB0499401A062811D33F
:103E9000FFE70899202048650899032081F835003C
:103EA000FFE70899002081F83400FFE701208DF832
:103EB0002700FDE1E1E70898016801201022C4F223
:103EC00002029142019000F0A380FFE70898016888
:103ED00001202822C4F202029142019000F0988051
:103EE000FFE70898016801204022C4F202029142D3
:103EF000019000F08D80FFE70898016801205822AA
:103F0000C4F202029142019000F08280FFE708981B
:103F1000016801207022C4F202029142019077D020
:103F2000FFE70898016801208822C4F2020291424A
:103F300001906DD0FFE7089801680120A022C4F22B
:103F400002029142019063D0FFE7089801680120C6
:103F5000B822C4F202029142019059D0FFE70898BA
:103F60000168012040F21042C4F202029142019025
:103F70004ED0FFE708980168012040F22842C4F2C1
:103F800002029142019043D0FFE7089801680120A6
:103F900040F24042C4F202029142019038D0FFE761
:103FA00008980168012040F25842C4F2020291428E
:103FB00001902DD0FFE708980168012040F270427F
:103FC000C4F202029142019022D0FFE708980168F2
:103FD000012040F28842C4F202029142019017D0BF
:103FE000FFE708980168012040F2A042C4F20202F3
:103FF000914201900CD0FFE7089800684FF64831D5
:10400000CBF6FD710844B0FA80F040090190FFE75B
:104010000198C00760B1FFE70898806D0790089885
:10402000C06D00F01F013F208840079988600BE0B9
:104030000898806D06900898C06D00F01F0101205F
:10404000884006994860FFE708980168012010221F
:10405000C4F202029142009000F00381FFE7089849
:10406000016801202822C4F202029142009000F06F
:10407000F880FFE70898016801204022C4F202029C
:104080009142009000F0ED80FFE708980168012060
:104090005822C4F202029142009000F0E280FFE751
:1040A0000898016801207022C4F202029142009037
:1040B00000F0D780FFE70898016801208822C4F249
:1040C00002029142009000F0CC80FFE7089801685E
:1040D0000120A022C4F202029142009000F0C180AF
:1040E000FFE7089801680120B822C4F20202914259
:1040F000009000F0B680FFE708980168012040F2C8
:104100001042C4F202029142009000F0AA80FFE740
:1041100008980168012040F22842C4F2020291424C
:10412000009000F09E80FFE708980168012040F2AF
:104130004042C4F202029142009000F09280FFE7F8
:1041400008980168012040F25842C4F202029142EC
:10415000009000F08680FFE708980168012040F297
:104160007042C4F20202914200907AD0FFE70898B0
:104170000168012040F28842C4F20202914200909C
:104180006FD0FFE708980168012040F2A042C4F216
:1041900002029142009064D0FFE708980168012074
:1041A00040F2B842C4F202029142009059D0FFE7B7
:1041B00008980168012045F20842C5F602029142C2
:1041C00000904ED0FFE708980168012045F21C429C
:1041D000C5F602029142009043D0FFE708980168BB
:1041E000012045F23042C5F602029142009038D0DB
:1041F000FFE708980168012045F24442C5F6020233
:10420000914200902DD0FFE708980168012045F207
:104210005842C5F602029142009022D0FFE708986A
:104220000168012045F26C42C5F6020291420090FD
:1042300017D0FFE708980168012045F28042C5F6D3
:104240000202914200900CD0FFE7089800684AF6FD
:104250006C31CAF2FD710844B0FA80F04009009058
:10426000FFE70098C007A0B1FFE70898416E806E95
:1042700048600898C06E58B1FFE70898C16E08689A
:1042800020F4807008600898016F406F4860FFE775
:10429000FFE70899012081F83500FFE70899002021
:1042A00081F83400FFE7FFE700208DF82700FFE7E3
:1042B0009DF827000AB080BD80B586B004900498B0
:1042C00020B9FFE701208DF8170046E3049890F825
:1042D0003500022807D0FFE70499802048650120B7
:1042E0008DF8170039E30498016801201022C4F208
:1042F00002029142029000F0A380FFE70498016857
:1043000001202822C4F202029142029000F098801B
:10431000FFE70498016801204022C4F202029142A2
:10432000029000F08D80FFE7049801680120582278
:10433000C4F202029142029000F08280FFE70498EA
:10434000016801207022C4F202029142029077D0EB
:10435000FFE70498016801208822C4F2020291421A
:1043600002906DD0FFE7049801680120A022C4F2FA
:1043700002029142029063D0FFE704980168012095
:10438000B822C4F202029142029059D0FFE7049889
:104390000168012040F21042C4F2020291420290F0
:1043A0004ED0FFE704980168012040F22842C4F291
:1043B00002029142029043D0FFE704980168012075
:1043C00040F24042C4F202029142029038D0FFE72C
:1043D00004980168012040F25842C4F2020291425E
:1043E00002902DD0FFE704980168012040F270424E
:1043F000C4F202029142029022D0FFE704980168C1
:10440000012040F28842C4F202029142029017D089
:10441000FFE704980168012040F2A042C4F20202C2
:10442000914202900CD0FFE7049800684FF64831A3
:10443000CBF6FD710844B0FA80F040090290FFE726
:104440000298C007002800F09D80FFE7049904202F
:1044500081F83500049800681021C4F202018842F6
:1044600000F08180FFE7049800682821C4F202016F
:10447000884278D0FFE7049800684021C4F2020126
:10448000884270D0FFE7049800685821C4F2020106
:10449000884268D0FFE7049800687021C4F20201E6
:1044A000884260D0FFE7049800688821C4F20201C6
:1044B000884258D0FFE704980068A021C4F20201A6
:1044C000884250D0FFE704980068B821C4F2020186
:1044D000884248D0FFE70498006840F21041C4F2D7
:1044E000020188423FD0FFE70498006840F228416B
:1044F000C4F20201884236D0FFE70498006840F217
:104500004041C4F2020188422DD0FFE704980068C0
:1045100040F25841C4F20201884224D0FFE70498D7
:10452000006840F27041C4F2020188421BD0FFE7EC
:104530000498006840F28841C4F20201884212D017
:10454000FFE70498006840F2A041C4F202018842EB
:1045500009D0FFE70498006840F2B841C4F20201B4
:10456000884207D1FFE704980168086820F001003D
:10457000086006E004980168086820F001000860FF
:10458000FFE7E5E104980168086820F00E00086084
:10459000049800681021C4F20201884200F0818072
:1045A000FFE7049800682821C4F20201884278D00D
:1045B000FFE7049800684021C4F20201884270D0ED
:1045C000FFE7049800685821C4F20201884268D0CD
:1045D000FFE7049800687021C4F20201884260D0AD
:1045E000FFE7049800688821C4F20201884258D08D
:1045F000FFE704980068A021C4F20201884250D06D
:10460000FFE704980068B821C4F20201884248D04C
:10461000FFE70498006840F21041C4F202018842AA
:104620003FD0FFE70498006840F22841C4F202013D
:10463000884236D0FFE70498006840F24041C4F257
:10464000020188422DD0FFE70498006840F25841EB
:10465000C4F20201884224D0FFE70498006840F2C7
:104660007041C4F2020188421BD0FFE70498006841
:1046700040F28841C4F20201884212D0FFE7049858
:10468000006840F2A041C4F20201884209D0FFE76D
:104690000498006840F2B841C4F20201884207D190
:1046A000FFE704980168086820F00100086006E050
:1046B00004980168086820F001000860FFE704988A
:1046C000016801201022C4F202029142019000F020
:1046D0000381FFE70498016801202822C4F2020246
:1046E0009142019000F0F880FFE7049801680120F2
:1046F0004022C4F202029142019000F0ED80FFE7F7
:104700000498016801205822C4F2020291420190EB
:1047100000F0E280FFE70498016801207022C4F2F3
:1047200002029142019000F0D780FFE704980168EF
:1047300001208822C4F202029142019000F0CC8054
:10474000FFE7049801680120A022C4F2020291420E
:10475000019000F0C180FFE7049801680120B822B1
:10476000C4F202029142019000F0B680FFE7049883
:104770000168012040F21042C4F20202914201900D
:1047800000F0AA80FFE704980168012040F2284267
:10479000C4F202029142019000F09E80FFE704986B
:1047A0000168012040F24042C4F2020291420190AD
:1047B00000F09280FFE704980168012040F258421F
:1047C000C4F202029142019000F08680FFE7049853
:1047D0000168012040F27042C4F20202914201904D
:1047E0007AD0FFE704980168012040F28842C4F2C1
:1047F0000202914201906FD0FFE704980168012006
:1048000040F2A042C4F202029142019064D0FFE75C
:1048100004980168012040F2B842C4F202029142B9
:10482000019059D0FFE704980168012045F2084241
:10483000C5F60202914201904ED0FFE7049801684C
:10484000012045F21C42C5F602029142019043D07C
:10485000FFE704980168012045F23042C5F60202E4
:104860009142019038D0FFE704980168012045F299
:104870004442C5F60202914201902DD0FFE7049810
:104880000168012045F25842C5F6020291420190AA
:1048900022D0FFE704980168012045F26C42C5F67A
:1048A00002029142019017D0FFE7049801680120AD
:1048B00045F28042C5F60202914201900CD0FFE71A
:1048C000049800684AF66C31CAF2FD710844B0FAE7
:1048D00080F040090190FFE70198C00728B3FFE787
:1048E0000498016E086820F4807008600498806D58
:1048F00003900498C06D00F01F01012088400399C7
:1049000048600498416E806E48600498C06E58B14B
:10491000FFE70498C16E086820F48070086004986E
:10492000016F406F4860FFE7FFE70499012081F8BD
:104930003500FFE70499002081F83400FFE7049870
:10494000006D20B1FFE70498016D8847FFE7FFE79E
:10495000FFE700208DF81700FFE79DF8170006B06D
:1049600080BD00000000000081B000900098406D04
:1049700001B070470000000080B590B00F9000209B
:104980000B9040F2C800C2F20040006848F2B51136
:10499000C1F64E31A0FB0110800A0A900F98806D7D
:1049A00009900F98806D0890099800680E900898FB
:1049B00000680D900F98016801201022C4F20202D5
:1049C0009142079000F0A380FFE70F980168012053
:1049D0002822C4F202029142079000F09880FFE77B
:1049E0000F98016801204022C4F202029142079010
:1049F00000F08D80FFE70F98016801205822C4F273
:104A000002029142079000F08280FFE70F98016850
:104A100001207022C4F202029142079077D0FFE792
:104A20000F98016801208822C4F202029142079087
:104A30006DD0FFE70F9801680120A022C4F20202A6
:104A40009142079063D0FFE70F9801680120B822D8
:104A5000C4F202029142079059D0FFE70F98016813
:104A6000012040F21042C4F20202914207904ED05F
:104A7000FFE70F980168012040F22842C4F20202C9
:104A80009142079043D0FFE70F980168012040F260
:104A90004042C4F202029142079038D0FFE70F98DB
:104AA0000168012040F25842C4F20202914207908C
:104AB0002DD0FFE70F980168012040F27042C4F248
:104AC00002029142079022D0FFE70F98016801206F
:104AD00040F28842C4F202029142079017D0FFE7E9
:104AE0000F980168012040F2A042C4F202029142F4
:104AF00007900CD0FFE70F9800684FF64831CBF6CF
:104B0000FD710844B0FA80F040090790FFE707986C
:104B1000C007002800F01385FFE70E980F99C96DB4
:104B200001F01F01C8400007002840F1B080FFE7F6
:104B30000F9800681021C4F20201884200F08180C1
:104B4000FFE70F9800682821C4F20201884278D05C
:104B5000FFE70F9800684021C4F20201884270D03C
:104B6000FFE70F9800685821C4F20201884268D01C
:104B7000FFE70F9800687021C4F20201884260D0FC
:104B8000FFE70F9800688821C4F20201884258D0DC
:104B9000FFE70F980068A021C4F20201884250D0BC
:104BA000FFE70F980068B821C4F20201884248D09C
:104BB000FFE70F98006840F21041C4F202018842FA
:104BC0003FD0FFE70F98006840F22841C4F202018D
:104BD000884236D0FFE70F98006840F24041C4F2A7
:104BE000020188422DD0FFE70F98006840F258413B
:104BF000C4F20201884224D0FFE70F98006840F217
:104C00007041C4F2020188421BD0FFE70F98006890
:104C100040F28841C4F20201884212D0FFE70F98A7
:104C2000006840F2A041C4F20201884209D0FFE7C7
:104C30000F98006840F2B841C4F20201884207D1DF
:104C4000FFE70F980068006800F00400069006E097
:104C50000F980068006800F008000690FFE70698CB
:104C6000A0B1FFE70F980168086820F00400086011
:104C70000F98C06D00F01F010820884009998860D6
:104C80000F99486D40F001004865FFE7FFE70E9877
:104C90000F99C96D01F01F01C840C007002800F03E
:104CA000A980FFE70F9800681021C4F20201884232
:104CB00000F08180FFE70F9800682821C4F202010C
:104CC000884278D0FFE70F9800684021C4F20201C3
:104CD000884270D0FFE70F9800685821C4F20201A3
:104CE000884268D0FFE70F9800687021C4F2020183
:104CF000884260D0FFE70F9800688821C4F2020163
:104D0000884258D0FFE70F980068A021C4F2020142
:104D1000884250D0FFE70F980068B821C4F2020122
:104D2000884248D0FFE70F98006840F21041C4F273
:104D3000020188423FD0FFE70F98006840F2284107
:104D4000C4F20201884236D0FFE70F98006840F2B3
:104D50004041C4F2020188422DD0FFE70F9800685D
:104D600040F25841C4F20201884224D0FFE70F9874
:104D7000006840F27041C4F2020188421BD0FFE794
:104D80000F98006840F28841C4F20201884212D0B4
:104D9000FFE70F98006840F2A041C4F20201884288
:104DA00009D0FFE70F98006840F2B841C4F2020151
:104DB000884207D1FFE70F980068406900F0800043
:104DC000059005E00F980068006800200590FFE757
:104DD000059870B1FFE70F98C06D00F01F0101202A
:104DE0008840099988600F99486D40F00200486535
:104DF000FFE7FFE70E980F99C96D01F01F01C8404A
:104E00004007002840F1A980FFE70F9800681021B3
:104E1000C4F20201884200F08180FFE70F98006829
:104E20002821C4F20201884278D0FFE70F98006879
:104E30004021C4F20201884270D0FFE70F98006859
:104E40005821C4F20201884268D0FFE70F98006839
:104E50007021C4F20201884260D0FFE70F98006819
:104E60008821C4F20201884258D0FFE70F980068F9
:104E7000A021C4F20201884250D0FFE70F980068D9
:104E8000B821C4F20201884248D0FFE70F980068B9
:104E900040F21041C4F2020188423FD0FFE70F9870
:104EA000006840F22841C4F20201884236D0FFE790
:104EB0000F98006840F24041C4F2020188422DD0B0
:104EC000FFE70F98006840F25841C4F2020188429F
:104ED00024D0FFE70F98006840F27041C4F202014D
:104EE00088421BD0FFE70F98006840F28841C4F267
:104EF0000201884212D0FFE70F98006840F2A041FB
:104F0000C4F20201884209D0FFE70F98006840F21E
:104F1000B841C4F20201884207D1FFE70F98006848
:104F2000006800F00200049005E00F980068006837
:104F300000200490FFE7049870B1FFE70F98C06D60
:104F400000F01F0104208840099988600F99486D7E
:104F500040F004004865FFE7FFE70E980F99C96D20
:104F600001F01F01C840C006002840F1DE80FFE7C5
:104F70000F9800681021C4F20201884200F081807D
:104F8000FFE70F9800682821C4F20201884278D018
:104F9000FFE70F9800684021C4F20201884270D0F8
:104FA000FFE70F9800685821C4F20201884268D0D8
:104FB000FFE70F9800687021C4F20201884260D0B8
:104FC000FFE70F9800688821C4F20201884258D098
:104FD000FFE70F980068A021C4F20201884250D078
:104FE000FFE70F980068B821C4F20201884248D058
:104FF000FFE70F98006840F21041C4F202018842B6
:105000003FD0FFE70F98006840F22841C4F2020148
:10501000884236D0FFE70F98006840F24041C4F262
:10502000020188422DD0FFE70F98006840F25841F6
:10503000C4F20201884224D0FFE70F98006840F2D2
:105040007041C4F2020188421BD0FFE70F9800684C
:1050500040F28841C4F20201884212D0FFE70F9863
:10506000006840F2A041C4F20201884209D0FFE783
:105070000F98006840F2B841C4F20201884207D19B
:10508000FFE70F980068006800F00800039006E052
:105090000F980068006800F004000390FFE7039891
:1050A000002841D0FFE70F98C06D00F01F011020CD
:1050B0008840099988600F980068006840030028BC
:1050C0001AD5FFE70F98006800680003002809D48C
:1050D000FFE70F98006C20B1FFE70F98016C88473D
:1050E000FFE708E00F98806C20B1FFE70F98816C14
:1050F0008847FFE7FFE716E00F9800680068C005E3
:10510000002807D4FFE70F980168086820F008001E
:105110000860FFE70F98006C20B1FFE70F98016C63
:105120008847FFE7FFE7FFE7FFE70E980F99C96D94
:1051300001F01F01C8408006002840F12681FFE7EA
:105140000F9800681021C4F20201884200F08180AB
:10515000FFE70F9800682821C4F20201884278D046
:10516000FFE70F9800684021C4F20201884270D026
:10517000FFE70F9800685821C4F20201884268D006
:10518000FFE70F9800687021C4F20201884260D0E6
:10519000FFE70F9800688821C4F20201884258D0C6
:1051A000FFE70F980068A021C4F20201884250D0A6
:1051B000FFE70F980068B821C4F20201884248D086
:1051C000FFE70F98006840F21041C4F202018842E4
:1051D0003FD0FFE70F98006840F22841C4F2020177
:1051E000884236D0FFE70F98006840F24041C4F291
:1051F000020188422DD0FFE70F98006840F2584125
:10520000C4F20201884224D0FFE70F98006840F200
:105210007041C4F2020188421BD0FFE70F9800687A
:1052200040F28841C4F20201884212D0FFE70F9891
:10523000006840F2A041C4F20201884209D0FFE7B1
:105240000F98006840F2B841C4F20201884207D1C9
:10525000FFE70F980068006800F01000029006E079
:105260000F980068006800F002000290FFE70298C3
:10527000002800F08980FFE70F98C06D00F01F0143
:1052800020208840099988600F9890F835000428FC
:1052900037D1FFE70F980168086820F01600086012
:1052A0000F980168486920F0800048610F98006CF1
:1052B00020B9FFE70F98806C38B1FFE70F980168BD
:1052C000086820F008000860FFE70F98C06D00F044
:1052D0001F013F208840099988600F99012081F8BB
:1052E0003500FFE70F99002081F83400FFE70F98A1
:1052F000006D20B1FFE70F98016D8847FFE700F0D0
:1053000019BC0F9800680068400300281AD5FFE711
:105310000F98006800680003002809D4FFE70F9881
:10532000406C20B1FFE70F98416C8847FFE708E029
:105330000F98C06B20B1FFE70F98C16B8847FFE75C
:10534000FFE720E00F9800680068C005002811D42E
:10535000FFE70F980168086820F0100008600F99B7
:10536000012081F83500FFE70F99002081F8340013
:10537000FFE7FFE70F98C06B20B1FFE70F98C16B05
:105380008847FFE7FFE7FFE7FFE70F98406D00283A
:1053900000F0D480FFE70F98406DC007002800F0B0
:1053A000C480FFE70F99042081F835000F9800684A
:1053B0001021C4F20201884200F08180FFE70F98BB
:1053C00000682821C4F20201884278D0FFE70F98D4
:1053D00000684021C4F20201884270D0FFE70F98B4
:1053E00000685821C4F20201884268D0FFE70F9894
:1053F00000687021C4F20201884260D0FFE70F9874
:1054000000688821C4F20201884258D0FFE70F9853
:105410000068A021C4F20201884250D0FFE70F9833
:105420000068B821C4F20201884248D0FFE70F9813
:10543000006840F21041C4F2020188423FD0FFE709
:105440000F98006840F22841C4F20201884236D029
:10545000FFE70F98006840F24041C4F20201884221
:105460002DD0FFE70F98006840F25841C4F20201C6
:10547000884224D0FFE70F98006840F27041C4F2E0
:10548000020188421BD0FFE70F98006840F2884174
:10549000C4F20201884212D0FFE70F98006840F280
:1054A000A041C4F20201884209D0FFE70F980068CA
:1054B00040F2B841C4F20201884207D1FFE70F98D9
:1054C0000168086820F00100086006E00F98016894
:1054D000086820F001000860FFE7FFE70B98013043
:1054E0000B900A99884201D9FFE707E0FFE70F9880
:1054F00000680068C0070028F0D1FFE70F98006837
:105500000068C00728B1FFE70F99032081F8350034
:1055100004E00F99012081F83500FFE7FFE70F99BC
:10552000002081F83400FFE7FFE70F98C06C20B13E
:10553000FFE70F98C16C8847FFE7FFE7FAE20F9893
:105540000168012045F20842C5F60202914201902D
:105550004ED0FFE70F980168012045F21C42C5F6C6
:1055600002029142019043D0FFE70F9801680120A9
:1055700045F23042C5F602029142019038D0FFE771
:105580000F980168012045F24442C5F6020291429B
:1055900001902DD0FFE70F980168012045F2584295
:1055A000C5F602029142019022D0FFE70F980168F0
:1055B000012045F26C42C5F602029142019017D0DB
:1055C000FFE70F980168012045F28042C5F602020C
:1055D000914201900CD0FFE70F9800684AF66C31B9
:1055E000CAF2FD710844B0FA80F040090190FFE76B
:1055F0000198C007002800F09B82FFE70F98006821
:1056000000680C900D980F99C96D01F01F01C840FA
:105610004007002840F1D780FFE79DF830004007A1
:10562000002840F1D080FFE70F98C06D00F01F0107
:1056300004208840089948609DF831000006002841
:1056400018D5FFE79DF83200C00748B9FFE70F986B
:10565000806C20B1FFE70F98816C8847FFE708E076
:105660000F98006C20B1FFE70F98016C8847FFE7A7
:10567000FFE7A7E09DF830008006002800F1998040
:10568000FFE70F9800681021C4F20201884200F081
:105690008180FFE70F9800682821C4F20201884248
:1056A00078D0FFE70F9800684021C4F202018842D9
:1056B00070D0FFE70F9800685821C4F202018842B9
:1056C00068D0FFE70F9800687021C4F20201884299
:1056D00060D0FFE70F9800688821C4F20201884279
:1056E00058D0FFE70F980068A021C4F20201884259
:1056F00050D0FFE70F980068B821C4F20201884239
:1057000048D0FFE70F98006840F21041C4F2020150
:1057100088423FD0FFE70F98006840F22841C4F26A
:105720000201884236D0FFE70F98006840F24041FE
:10573000C4F2020188422DD0FFE70F98006840F2C2
:105740005841C4F20201884224D0FFE70F98006854
:1057500040F27041C4F2020188421BD0FFE70F986B
:10576000006840F28841C4F20201884212D0FFE78B
:105770000F98006840F2A041C4F20201884209D0AB
:10578000FFE70F98006840F2B841C4F20201884276
:1057900007D1FFE70F980168086820F0080008604B
:1057A00006E00F980168086820F004000860FFE731
:1057B000FFE70F98006C20B1FFE70F98016C884756
:1057C000FFE7FFE7B3E10D980F99C96D01F01F01E5
:1057D000C8408007002840F1E180FFE79DF83000D5
:1057E0008007002840F1DA80FFE70F98C06D00F0D5
:1057F0001F0102208840089948609DF8310000068A
:10580000002818D5FFE79DF83200C00748B9FFE728
:105810000F98406C20B1FFE70F98416C8847FFE775
:1058200008E00F98C06B20B1FFE70F98C16B884765
:10583000FFE7FFE7B1E09DF830008006002800F1A7
:10584000A380FFE70F9800681021C4F2020188428C
:1058500000F08180FFE70F9800682821C4F2020160
:10586000884278D0FFE70F9800684021C4F2020117
:10587000884270D0FFE70F9800685821C4F20201F7
:10588000884268D0FFE70F9800687021C4F20201D7
:10589000884260D0FFE70F9800688821C4F20201B7
:1058A000884258D0FFE70F980068A021C4F2020197
:1058B000884250D0FFE70F980068B821C4F2020177
:1058C000884248D0FFE70F98006840F21041C4F2C8
:1058D000020188423FD0FFE70F98006840F228415C
:1058E000C4F20201884236D0FFE70F98006840F208
:1058F0004041C4F2020188422DD0FFE70F980068B2
:1059000040F25841C4F20201884224D0FFE70F98C8
:10591000006840F27041C4F2020188421BD0FFE7E8
:105920000F98006840F28841C4F20201884212D008
:10593000FFE70F98006840F2A041C4F202018842DC
:1059400009D0FFE70F98006840F2B841C4F20201A5
:10595000884207D1FFE70F980168086820F014001B
:10596000086006E00F980168086820F00A000860E7
:10597000FFE70F99012081F83500FFE70F9900201C
:1059800081F83400FFE7FFE70F98C06B20B1FFE715
:105990000F98C16B8847FFE7FFE7C7E00D980F99A5
:1059A000C96D01F01F01C8400007002840F1BC800C
:1059B000FFE79DF830000007002840F1B580FFE7C1
:1059C0000F9800681021C4F20201884200F0818023
:1059D000FFE70F9800682821C4F20201884278D0BE
:1059E000FFE70F9800684021C4F20201884270D09E
:1059F000FFE70F9800685821C4F20201884268D07E
:105A0000FFE70F9800687021C4F20201884260D05D
:105A1000FFE70F9800688821C4F20201884258D03D
:105A2000FFE70F980068A021C4F20201884250D01D
:105A3000FFE70F980068B821C4F20201884248D0FD
:105A4000FFE70F98006840F21041C4F2020188425B
:105A50003FD0FFE70F98006840F22841C4F20201EE
:105A6000884236D0FFE70F98006840F24041C4F208
:105A7000020188422DD0FFE70F98006840F258419C
:105A8000C4F20201884224D0FFE70F98006840F278
:105A90007041C4F2020188421BD0FFE70F980068F2
:105AA00040F28841C4F20201884212D0FFE70F9809
:105AB000006840F2A041C4F20201884209D0FFE729
:105AC0000F98006840F2B841C4F20201884207D141
:105AD000FFE70F980168086820F01C00086006E0E6
